{
  "contracts/Lottery.sol": {
    "Lottery": {
      "abi": [
        {
          "inputs": [
            {
              "internalType": "uint256",
              "name": "entranceFee",
              "type": "uint256"
            },
            {
              "internalType": "address",
              "name": "vrfCoordinator",
              "type": "address"
            },
            {
              "internalType": "bytes32",
              "name": "keyHash",
              "type": "bytes32"
            },
            {
              "internalType": "uint256",
              "name": "subscriptionId",
              "type": "uint256"
            },
            {
              "internalType": "uint32",
              "name": "callbackGasLimit",
              "type": "uint32"
            },
            {
              "internalType": "uint256",
              "name": "interval",
              "type": "uint256"
            }
          ],
          "stateMutability": "nonpayable",
          "type": "constructor"
        },
        {
          "inputs": [],
          "name": "Lottery__InvalidEntranceFee",
          "type": "error"
        },
        {
          "inputs": [
            {
              "internalType": "uint256",
              "name": "balance",
              "type": "uint256"
            },
            {
              "internalType": "uint256",
              "name": "numPlayers",
              "type": "uint256"
            },
            {
              "internalType": "uint256",
              "name": "lotteryState",
              "type": "uint256"
            }
          ],
          "name": "Lottery__LotteryUpkeepNotNeeded",
          "type": "error"
        },
        {
          "inputs": [],
          "name": "Lottery__NotOpened",
          "type": "error"
        },
        {
          "inputs": [],
          "name": "Lottery__TransferFailed",
          "type": "error"
        },
        {
          "inputs": [
            {
              "internalType": "address",
              "name": "have",
              "type": "address"
            },
            {
              "internalType": "address",
              "name": "want",
              "type": "address"
            }
          ],
          "name": "OnlyCoordinatorCanFulfill",
          "type": "error"
        },
        {
          "inputs": [
            {
              "internalType": "address",
              "name": "have",
              "type": "address"
            },
            {
              "internalType": "address",
              "name": "owner",
              "type": "address"
            },
            {
              "internalType": "address",
              "name": "coordinator",
              "type": "address"
            }
          ],
          "name": "OnlyOwnerOrCoordinator",
          "type": "error"
        },
        {
          "inputs": [],
          "name": "ZeroAddress",
          "type": "error"
        },
        {
          "anonymous": false,
          "inputs": [
            {
              "indexed": false,
              "internalType": "address",
              "name": "vrfCoordinator",
              "type": "address"
            }
          ],
          "name": "CoordinatorSet",
          "type": "event"
        },
        {
          "anonymous": false,
          "inputs": [
            {
              "indexed": true,
              "internalType": "address",
              "name": "player",
              "type": "address"
            }
          ],
          "name": "LotteryJoined",
          "type": "event"
        },
        {
          "anonymous": false,
          "inputs": [
            {
              "indexed": true,
              "internalType": "uint256",
              "name": "requestId",
              "type": "uint256"
            }
          ],
          "name": "LotteryRandomId",
          "type": "event"
        },
        {
          "anonymous": false,
          "inputs": [
            {
              "indexed": true,
              "internalType": "address",
              "name": "winner",
              "type": "address"
            }
          ],
          "name": "LotteryWinnerPicked",
          "type": "event"
        },
        {
          "anonymous": false,
          "inputs": [
            {
              "indexed": true,
              "internalType": "address",
              "name": "from",
              "type": "address"
            },
            {
              "indexed": true,
              "internalType": "address",
              "name": "to",
              "type": "address"
            }
          ],
          "name": "OwnershipTransferRequested",
          "type": "event"
        },
        {
          "anonymous": false,
          "inputs": [
            {
              "indexed": true,
              "internalType": "address",
              "name": "from",
              "type": "address"
            },
            {
              "indexed": true,
              "internalType": "address",
              "name": "to",
              "type": "address"
            }
          ],
          "name": "OwnershipTransferred",
          "type": "event"
        },
        {
          "inputs": [],
          "name": "acceptOwnership",
          "outputs": [],
          "stateMutability": "nonpayable",
          "type": "function"
        },
        {
          "inputs": [
            {
              "internalType": "bytes",
              "name": "",
              "type": "bytes"
            }
          ],
          "name": "checkUpkeep",
          "outputs": [
            {
              "internalType": "bool",
              "name": "upkeepNeeded",
              "type": "bool"
            },
            {
              "internalType": "bytes",
              "name": "",
              "type": "bytes"
            }
          ],
          "stateMutability": "view",
          "type": "function"
        },
        {
          "inputs": [],
          "name": "getEntranceFee",
          "outputs": [
            {
              "internalType": "uint256",
              "name": "",
              "type": "uint256"
            }
          ],
          "stateMutability": "view",
          "type": "function"
        },
        {
          "inputs": [],
          "name": "getInterval",
          "outputs": [
            {
              "internalType": "uint256",
              "name": "",
              "type": "uint256"
            }
          ],
          "stateMutability": "view",
          "type": "function"
        },
        {
          "inputs": [],
          "name": "getLatestTimestamp",
          "outputs": [
            {
              "internalType": "uint256",
              "name": "",
              "type": "uint256"
            }
          ],
          "stateMutability": "view",
          "type": "function"
        },
        {
          "inputs": [],
          "name": "getLotteryState",
          "outputs": [
            {
              "internalType": "enum Lottery.LotteryState",
              "name": "",
              "type": "uint8"
            }
          ],
          "stateMutability": "view",
          "type": "function"
        },
        {
          "inputs": [],
          "name": "getNumWords",
          "outputs": [
            {
              "internalType": "uint32",
              "name": "",
              "type": "uint32"
            }
          ],
          "stateMutability": "pure",
          "type": "function"
        },
        {
          "inputs": [],
          "name": "getNumberOfPlayers",
          "outputs": [
            {
              "internalType": "uint256",
              "name": "",
              "type": "uint256"
            }
          ],
          "stateMutability": "view",
          "type": "function"
        },
        {
          "inputs": [
            {
              "internalType": "uint256",
              "name": "index",
              "type": "uint256"
            }
          ],
          "name": "getPlayer",
          "outputs": [
            {
              "internalType": "address",
              "name": "",
              "type": "address"
            }
          ],
          "stateMutability": "view",
          "type": "function"
        },
        {
          "inputs": [],
          "name": "getRecentTimestamp",
          "outputs": [
            {
              "internalType": "uint256",
              "name": "",
              "type": "uint256"
            }
          ],
          "stateMutability": "view",
          "type": "function"
        },
        {
          "inputs": [],
          "name": "getRecentWinner",
          "outputs": [
            {
              "internalType": "address",
              "name": "",
              "type": "address"
            }
          ],
          "stateMutability": "view",
          "type": "function"
        },
        {
          "inputs": [],
          "name": "joinLottery",
          "outputs": [],
          "stateMutability": "payable",
          "type": "function"
        },
        {
          "inputs": [],
          "name": "owner",
          "outputs": [
            {
              "internalType": "address",
              "name": "",
              "type": "address"
            }
          ],
          "stateMutability": "view",
          "type": "function"
        },
        {
          "inputs": [
            {
              "internalType": "bytes",
              "name": "",
              "type": "bytes"
            }
          ],
          "name": "performUpkeep",
          "outputs": [],
          "stateMutability": "nonpayable",
          "type": "function"
        },
        {
          "inputs": [
            {
              "internalType": "uint256",
              "name": "requestId",
              "type": "uint256"
            },
            {
              "internalType": "uint256[]",
              "name": "randomWords",
              "type": "uint256[]"
            }
          ],
          "name": "rawFulfillRandomWords",
          "outputs": [],
          "stateMutability": "nonpayable",
          "type": "function"
        },
        {
          "inputs": [],
          "name": "s_vrfCoordinator",
          "outputs": [
            {
              "internalType": "contract IVRFCoordinatorV2Plus",
              "name": "",
              "type": "address"
            }
          ],
          "stateMutability": "view",
          "type": "function"
        },
        {
          "inputs": [
            {
              "internalType": "address",
              "name": "_vrfCoordinator",
              "type": "address"
            }
          ],
          "name": "setCoordinator",
          "outputs": [],
          "stateMutability": "nonpayable",
          "type": "function"
        },
        {
          "inputs": [
            {
              "internalType": "address",
              "name": "to",
              "type": "address"
            }
          ],
          "name": "transferOwnership",
          "outputs": [],
          "stateMutability": "nonpayable",
          "type": "function"
        }
      ],
      "evm": {
        "bytecode": {
          "linkReferences": {},
          "object": "6101206040523480156200001257600080fd5b506040516200257a3803806200257a8339818101604052810190620000389190620004a7565b84338060008073ffffffffffffffffffffffffffffffffffffffff168273ffffffffffffffffffffffffffffffffffffffff1603620000ae576040517f08c379a0000000000000000000000000000000000000000000000000000000008152600401620000a590620005a4565b60405180910390fd5b816000806101000a81548173ffffffffffffffffffffffffffffffffffffffff021916908373ffffffffffffffffffffffffffffffffffffffff160217905550600073ffffffffffffffffffffffffffffffffffffffff168173ffffffffffffffffffffffffffffffffffffffff1614620001355762000134816200025760201b60201c565b5b505050600073ffffffffffffffffffffffffffffffffffffffff168173ffffffffffffffffffffffffffffffffffffffff16036200019f576040517fd92e233d00000000000000000000000000000000000000000000000000000000815260040160405180910390fd5b80600260006101000a81548173ffffffffffffffffffffffffffffffffffffffff021916908373ffffffffffffffffffffffffffffffffffffffff1602179055505085608081815250508360a081815250508260c081815250508163ffffffff1660e08163ffffffff16815250506000600460146101000a81548160ff02191690836001811115620002365762000235620005c6565b5b02179055504260058190555080610100818152505050505050505062000667565b3373ffffffffffffffffffffffffffffffffffffffff168173ffffffffffffffffffffffffffffffffffffffff1603620002c8576040517f08c379a0000000000000000000000000000000000000000000000000000000008152600401620002bf9062000645565b60405180910390fd5b80600160006101000a81548173ffffffffffffffffffffffffffffffffffffffff021916908373ffffffffffffffffffffffffffffffffffffffff1602179055508073ffffffffffffffffffffffffffffffffffffffff1660008054906101000a900473ffffffffffffffffffffffffffffffffffffffff1673ffffffffffffffffffffffffffffffffffffffff167fed8889f560326eb138920d842192f0eb3dd22b4f139c87a2c57538e05bae127860405160405180910390a350565b600080fd5b6000819050919050565b620003a0816200038b565b8114620003ac57600080fd5b50565b600081519050620003c08162000395565b92915050565b600073ffffffffffffffffffffffffffffffffffffffff82169050919050565b6000620003f382620003c6565b9050919050565b6200040581620003e6565b81146200041157600080fd5b50565b6000815190506200042581620003fa565b92915050565b6000819050919050565b62000440816200042b565b81146200044c57600080fd5b50565b600081519050620004608162000435565b92915050565b600063ffffffff82169050919050565b620004818162000466565b81146200048d57600080fd5b50565b600081519050620004a18162000476565b92915050565b60008060008060008060c08789031215620004c757620004c662000386565b5b6000620004d789828a01620003af565b9650506020620004ea89828a0162000414565b9550506040620004fd89828a016200044f565b94505060606200051089828a01620003af565b93505060806200052389828a0162000490565b92505060a06200053689828a01620003af565b9150509295509295509295565b600082825260208201905092915050565b7f43616e6e6f7420736574206f776e657220746f207a65726f0000000000000000600082015250565b60006200058c60188362000543565b9150620005998262000554565b602082019050919050565b60006020820190508181036000830152620005bf816200057d565b9050919050565b7f4e487b7100000000000000000000000000000000000000000000000000000000600052602160045260246000fd5b7f43616e6e6f74207472616e7366657220746f2073656c66000000000000000000600082015250565b60006200062d60178362000543565b91506200063a82620005f5565b602082019050919050565b6000602082019050818103600083015262000660816200061e565b9050919050565b60805160a05160c05160e05161010051611ec0620006ba600039600081816109250152610d480152600061064201526000610611015260006105eb01526000818161040001526107760152611ec06000f3fe6080604052600436106101095760003560e01c80638da5cb5b11610095578063d3df965811610064578063d3df965814610315578063e55ae4e814610340578063f2fde38b1461037d578063f43b52cb146103a6578063fd6673f5146103d157610109565b80638da5cb5b1461026b5780638ea981171461029657806391ad27b4146102bf5780639eccacf6146102ea57610109565b806353a2c19a116100dc57806353a2c19a146101b65780636b68c03c146101e15780636c77f9891461020c5780636e04ff0d1461021657806379ba50971461025457610109565b806309bc33a71461010e5780631fe543e3146101395780634585e33b14610162578063473f1ddc1461018b575b600080fd5b34801561011a57600080fd5b506101236103fc565b6040516101309190611356565b60405180910390f35b34801561014557600080fd5b50610160600480360381019061015b9190611416565b610424565b005b34801561016e57600080fd5b50610189600480360381019061018491906114cc565b6104ea565b005b34801561019757600080fd5b506101a061072a565b6040516101ad919061155a565b60405180910390f35b3480156101c257600080fd5b506101cb610754565b6040516101d89190611594565b60405180910390f35b3480156101ed57600080fd5b506101f661075d565b6040516102039190611626565b60405180910390f35b610214610774565b005b34801561022257600080fd5b5061023d60048036038101906102389190611782565b6108e3565b60405161024b929190611865565b60405180910390f35b34801561026057600080fd5b506102696109a5565b005b34801561027757600080fd5b50610280610b3a565b60405161028d919061155a565b60405180910390f35b3480156102a257600080fd5b506102bd60048036038101906102b891906118c1565b610b63565b005b3480156102cb57600080fd5b506102d4610d44565b6040516102e19190611356565b60405180910390f35b3480156102f657600080fd5b506102ff610d6c565b60405161030c919061194d565b60405180910390f35b34801561032157600080fd5b5061032a610d92565b6040516103379190611356565b60405180910390f35b34801561034c57600080fd5b5061036760048036038101906103629190611968565b610d9c565b604051610374919061155a565b60405180910390f35b34801561038957600080fd5b506103a4600480360381019061039f91906118c1565b610de4565b005b3480156103b257600080fd5b506103bb610df8565b6040516103c89190611356565b60405180910390f35b3480156103dd57600080fd5b506103e6610e02565b6040516103f39190611356565b60405180910390f35b60007f0000000000000000000000000000000000000000000000000000000000000000905090565b600260009054906101000a900473ffffffffffffffffffffffffffffffffffffffff1673ffffffffffffffffffffffffffffffffffffffff163373ffffffffffffffffffffffffffffffffffffffff16146104da5733600260009054906101000a900473ffffffffffffffffffffffffffffffffffffffff166040517f1cf993f40000000000000000000000000000000000000000000000000000000081526004016104d1929190611995565b60405180910390fd5b6104e5838383610e0f565b505050565b6000610504604051806020016040528060008152506108e3565b509050806105735747600380549050600460149054906101000a900460ff166001811115610535576105346115af565b5b6040517fc2c9232700000000000000000000000000000000000000000000000000000000815260040161056a939291906119be565b60405180910390fd5b6001600460146101000a81548160ff02191690836001811115610599576105986115af565b5b02179055506000600260009054906101000a900473ffffffffffffffffffffffffffffffffffffffff1673ffffffffffffffffffffffffffffffffffffffff16639b1c385e6040518060c001604052807f000000000000000000000000000000000000000000000000000000000000000081526020017f00000000000000000000000000000000000000000000000000000000000000008152602001600361ffff1681526020017f000000000000000000000000000000000000000000000000000000000000000063ffffffff168152602001600163ffffffff168152602001610693604051806020016040528060001515815250611042565b8152506040518263ffffffff1660e01b81526004016106b29190611b1c565b6020604051808303816000875af11580156106d1573d6000803e3d6000fd5b505050506040513d601f19601f820116820180604052508101906106f59190611b53565b9050807f6720ea74d68a15590644ec8a7a44a03cd3eb4301f1cc2225ead36f62797369c060405160405180910390a250505050565b6000600460009054906101000a900473ffffffffffffffffffffffffffffffffffffffff16905090565b60006001905090565b6000600460149054906101000a900460ff16905090565b7f00000000000000000000000000000000000000000000000000000000000000003410156107ce576040517fec4bdd1100000000000000000000000000000000000000000000000000000000815260040160405180910390fd5b600060018111156107e2576107e16115af565b5b600460149054906101000a900460ff166001811115610804576108036115af565b5b1461083b576040517f04fbadad00000000000000000000000000000000000000000000000000000000815260040160405180910390fd5b6003339080600181540180825580915050600190039060005260206000200160009091909190916101000a81548173ffffffffffffffffffffffffffffffffffffffff021916908373ffffffffffffffffffffffffffffffffffffffff1602179055503373ffffffffffffffffffffffffffffffffffffffff167fbbb3d1929b2569bba0f8b97c17720c8c4160a7a17e4a09134240338255cf170160405160405180910390a2565b6000606060008060018111156108fc576108fb6115af565b5b600460149054906101000a900460ff16600181111561091e5761091d6115af565b5b14905060007f0000000000000000000000000000000000000000000000000000000000000000600554426109529190611baf565b10159050600080600380549050119050600080471190508380156109735750825b801561097c5750815b80156109855750805b955085604051806020016040528060008152509550955050505050915091565b600160009054906101000a900473ffffffffffffffffffffffffffffffffffffffff1673ffffffffffffffffffffffffffffffffffffffff163373ffffffffffffffffffffffffffffffffffffffff1614610a35576040517f08c379a0000000000000000000000000000000000000000000000000000000008152600401610a2c90611c40565b60405180910390fd5b60008060009054906101000a900473ffffffffffffffffffffffffffffffffffffffff169050336000806101000a81548173ffffffffffffffffffffffffffffffffffffffff021916908373ffffffffffffffffffffffffffffffffffffffff1602179055506000600160006101000a81548173ffffffffffffffffffffffffffffffffffffffff021916908373ffffffffffffffffffffffffffffffffffffffff1602179055503373ffffffffffffffffffffffffffffffffffffffff168173ffffffffffffffffffffffffffffffffffffffff167f8be0079c531659141344cd1fd0a4f28419497f9722a3daafe3b4186f6b6457e060405160405180910390a350565b60008060009054906101000a900473ffffffffffffffffffffffffffffffffffffffff16905090565b610b6b610b3a565b73ffffffffffffffffffffffffffffffffffffffff163373ffffffffffffffffffffffffffffffffffffffff1614158015610bf45750600260009054906101000a900473ffffffffffffffffffffffffffffffffffffffff1673ffffffffffffffffffffffffffffffffffffffff163373ffffffffffffffffffffffffffffffffffffffff1614155b15610c635733610c02610b3a565b600260009054906101000a900473ffffffffffffffffffffffffffffffffffffffff166040517f061db9c1000000000000000000000000000000000000000000000000000000008152600401610c5a93929190611c60565b60405180910390fd5b600073ffffffffffffffffffffffffffffffffffffffff168173ffffffffffffffffffffffffffffffffffffffff1603610cc9576040517fd92e233d00000000000000000000000000000000000000000000000000000000815260040160405180910390fd5b80600260006101000a81548173ffffffffffffffffffffffffffffffffffffffff021916908373ffffffffffffffffffffffffffffffffffffffff1602179055507fd1a6a14209a385a964d036e404cb5cfb71f4000cdb03c9366292430787261be681604051610d39919061155a565b60405180910390a150565b60007f0000000000000000000000000000000000000000000000000000000000000000905090565b600260009054906101000a900473ffffffffffffffffffffffffffffffffffffffff1681565b6000600554905090565b600060038281548110610db257610db1611c97565b5b9060005260206000200160009054906101000a900473ffffffffffffffffffffffffffffffffffffffff169050919050565b610dec6110da565b610df58161116a565b50565b6000600554905090565b6000600380549050905090565b600060038054905083836000818110610e2b57610e2a611c97565b5b90506020020135610e3c9190611cf5565b9050600060038281548110610e5457610e53611c97565b5b9060005260206000200160009054906101000a900473ffffffffffffffffffffffffffffffffffffffff16905080600460006101000a81548173ffffffffffffffffffffffffffffffffffffffff021916908373ffffffffffffffffffffffffffffffffffffffff1602179055506000600460146101000a81548160ff02191690836001811115610ee857610ee76115af565b5b0217905550600067ffffffffffffffff811115610f0857610f07611657565b5b604051908082528060200260200182016040528015610f365781602001602082028036833780820191505090505b5060039080519060200190610f4c929190611296565b504260058190555060008173ffffffffffffffffffffffffffffffffffffffff1647604051610f7a90611d57565b60006040518083038185875af1925050503d8060008114610fb7576040519150601f19603f3d011682016040523d82523d6000602084013e610fbc565b606091505b5050905080610ff7576040517f1c94012000000000000000000000000000000000000000000000000000000000815260040160405180910390fd5b8173ffffffffffffffffffffffffffffffffffffffff167fb896f9276cf1b0dbe15c17dd5b14b9dc204c39d78658ea01c3db123fce01118360405160405180910390a2505050505050565b60607f92fd13387c7fe7befbc38d303d6468778fb9731bc4583f17d92989c6fcfdeaaa826040516024016110769190611d97565b604051602081830303815290604052907bffffffffffffffffffffffffffffffffffffffffffffffffffffffff19166020820180517bffffffffffffffffffffffffffffffffffffffffffffffffffffffff83818316178352505050509050919050565b60008054906101000a900473ffffffffffffffffffffffffffffffffffffffff1673ffffffffffffffffffffffffffffffffffffffff163373ffffffffffffffffffffffffffffffffffffffff1614611168576040517f08c379a000000000000000000000000000000000000000000000000000000000815260040161115f90611dfe565b60405180910390fd5b565b3373ffffffffffffffffffffffffffffffffffffffff168173ffffffffffffffffffffffffffffffffffffffff16036111d8576040517f08c379a00000000000000000000000000000000000000000000000000000000081526004016111cf90611e6a565b60405180910390fd5b80600160006101000a81548173ffffffffffffffffffffffffffffffffffffffff021916908373ffffffffffffffffffffffffffffffffffffffff1602179055508073ffffffffffffffffffffffffffffffffffffffff1660008054906101000a900473ffffffffffffffffffffffffffffffffffffffff1673ffffffffffffffffffffffffffffffffffffffff167fed8889f560326eb138920d842192f0eb3dd22b4f139c87a2c57538e05bae127860405160405180910390a350565b82805482825590600052602060002090810192821561130f579160200282015b8281111561130e5782518260006101000a81548173ffffffffffffffffffffffffffffffffffffffff021916908373ffffffffffffffffffffffffffffffffffffffff160217905550916020019190600101906112b6565b5b50905061131c9190611320565b5090565b5b80821115611339576000816000905550600101611321565b5090565b6000819050919050565b6113508161133d565b82525050565b600060208201905061136b6000830184611347565b92915050565b6000604051905090565b600080fd5b600080fd5b61138e8161133d565b811461139957600080fd5b50565b6000813590506113ab81611385565b92915050565b600080fd5b600080fd5b600080fd5b60008083601f8401126113d6576113d56113b1565b5b8235905067ffffffffffffffff8111156113f3576113f26113b6565b5b60208301915083602082028301111561140f5761140e6113bb565b5b9250929050565b60008060006040848603121561142f5761142e61137b565b5b600061143d8682870161139c565b935050602084013567ffffffffffffffff81111561145e5761145d611380565b5b61146a868287016113c0565b92509250509250925092565b60008083601f84011261148c5761148b6113b1565b5b8235905067ffffffffffffffff8111156114a9576114a86113b6565b5b6020830191508360018202830111156114c5576114c46113bb565b5b9250929050565b600080602083850312156114e3576114e261137b565b5b600083013567ffffffffffffffff81111561150157611500611380565b5b61150d85828601611476565b92509250509250929050565b600073ffffffffffffffffffffffffffffffffffffffff82169050919050565b600061154482611519565b9050919050565b61155481611539565b82525050565b600060208201905061156f600083018461154b565b92915050565b600063ffffffff82169050919050565b61158e81611575565b82525050565b60006020820190506115a96000830184611585565b92915050565b7f4e487b7100000000000000000000000000000000000000000000000000000000600052602160045260246000fd5b600281106115ef576115ee6115af565b5b50565b6000819050611600826115de565b919050565b6000611610826115f2565b9050919050565b61162081611605565b82525050565b600060208201905061163b6000830184611617565b92915050565b600080fd5b6000601f19601f8301169050919050565b7f4e487b7100000000000000000000000000000000000000000000000000000000600052604160045260246000fd5b61168f82611646565b810181811067ffffffffffffffff821117156116ae576116ad611657565b5b80604052505050565b60006116c1611371565b90506116cd8282611686565b919050565b600067ffffffffffffffff8211156116ed576116ec611657565b5b6116f682611646565b9050602081019050919050565b82818337600083830152505050565b6000611725611720846116d2565b6116b7565b90508281526020810184848401111561174157611740611641565b5b61174c848285611703565b509392505050565b600082601f830112611769576117686113b1565b5b8135611779848260208601611712565b91505092915050565b6000602082840312156117985761179761137b565b5b600082013567ffffffffffffffff8111156117b6576117b5611380565b5b6117c284828501611754565b91505092915050565b60008115159050919050565b6117e0816117cb565b82525050565b600081519050919050565b600082825260208201905092915050565b60005b83811015611820578082015181840152602081019050611805565b60008484015250505050565b6000611837826117e6565b61184181856117f1565b9350611851818560208601611802565b61185a81611646565b840191505092915050565b600060408201905061187a60008301856117d7565b818103602083015261188c818461182c565b90509392505050565b61189e81611539565b81146118a957600080fd5b50565b6000813590506118bb81611895565b92915050565b6000602082840312156118d7576118d661137b565b5b60006118e5848285016118ac565b91505092915050565b6000819050919050565b600061191361190e61190984611519565b6118ee565b611519565b9050919050565b6000611925826118f8565b9050919050565b60006119378261191a565b9050919050565b6119478161192c565b82525050565b6000602082019050611962600083018461193e565b92915050565b60006020828403121561197e5761197d61137b565b5b600061198c8482850161139c565b91505092915050565b60006040820190506119aa600083018561154b565b6119b7602083018461154b565b9392505050565b60006060820190506119d36000830186611347565b6119e06020830185611347565b6119ed6040830184611347565b949350505050565b6000819050919050565b611a08816119f5565b82525050565b611a178161133d565b82525050565b600061ffff82169050919050565b611a3481611a1d565b82525050565b611a4381611575565b82525050565b600082825260208201905092915050565b6000611a65826117e6565b611a6f8185611a49565b9350611a7f818560208601611802565b611a8881611646565b840191505092915050565b600060c083016000830151611aab60008601826119ff565b506020830151611abe6020860182611a0e565b506040830151611ad16040860182611a2b565b506060830151611ae46060860182611a3a565b506080830151611af76080860182611a3a565b5060a083015184820360a0860152611b0f8282611a5a565b9150508091505092915050565b60006020820190508181036000830152611b368184611a93565b905092915050565b600081519050611b4d81611385565b92915050565b600060208284031215611b6957611b6861137b565b5b6000611b7784828501611b3e565b91505092915050565b7f4e487b7100000000000000000000000000000000000000000000000000000000600052601160045260246000fd5b6000611bba8261133d565b9150611bc58361133d565b9250828203905081811115611bdd57611bdc611b80565b5b92915050565b600082825260208201905092915050565b7f4d7573742062652070726f706f736564206f776e657200000000000000000000600082015250565b6000611c2a601683611be3565b9150611c3582611bf4565b602082019050919050565b60006020820190508181036000830152611c5981611c1d565b9050919050565b6000606082019050611c75600083018661154b565b611c82602083018561154b565b611c8f604083018461154b565b949350505050565b7f4e487b7100000000000000000000000000000000000000000000000000000000600052603260045260246000fd5b7f4e487b7100000000000000000000000000000000000000000000000000000000600052601260045260246000fd5b6000611d008261133d565b9150611d0b8361133d565b925082611d1b57611d1a611cc6565b5b828206905092915050565b600081905092915050565b50565b6000611d41600083611d26565b9150611d4c82611d31565b600082019050919050565b6000611d6282611d34565b9150819050919050565b611d75816117cb565b82525050565b602082016000820151611d916000850182611d6c565b50505050565b6000602082019050611dac6000830184611d7b565b92915050565b7f4f6e6c792063616c6c61626c65206279206f776e657200000000000000000000600082015250565b6000611de8601683611be3565b9150611df382611db2565b602082019050919050565b60006020820190508181036000830152611e1781611ddb565b9050919050565b7f43616e6e6f74207472616e7366657220746f2073656c66000000000000000000600082015250565b6000611e54601783611be3565b9150611e5f82611e1e565b602082019050919050565b60006020820190508181036000830152611e8381611e47565b905091905056fea2646970667358221220e572642b7a6a4ff856a5de052d220a163c438ab4c65ef25c560e944c28340a9864736f6c63430008180033",
          "opcodes": "PUSH2 0x120 PUSH1 0x40 MSTORE CALLVALUE DUP1 ISZERO PUSH3 0x12 JUMPI PUSH1 0x0 DUP1 REVERT JUMPDEST POP PUSH1 0x40 MLOAD PUSH3 0x257A CODESIZE SUB DUP1 PUSH3 0x257A DUP4 CODECOPY DUP2 DUP2 ADD PUSH1 0x40 MSTORE DUP2 ADD SWAP1 PUSH3 0x38 SWAP2 SWAP1 PUSH3 0x4A7 JUMP JUMPDEST DUP5 CALLER DUP1 PUSH1 0x0 DUP1 PUSH20 0xFFFFFFFFFFFFFFFFFFFFFFFFFFFFFFFFFFFFFFFF AND DUP3 PUSH20 0xFFFFFFFFFFFFFFFFFFFFFFFFFFFFFFFFFFFFFFFF AND SUB PUSH3 0xAE JUMPI PUSH1 0x40 MLOAD PUSH32 0x8C379A000000000000000000000000000000000000000000000000000000000 DUP2 MSTORE PUSH1 0x4 ADD PUSH3 0xA5 SWAP1 PUSH3 0x5A4 JUMP JUMPDEST PUSH1 0x40 MLOAD DUP1 SWAP2 SUB SWAP1 REVERT JUMPDEST DUP2 PUSH1 0x0 DUP1 PUSH2 0x100 EXP DUP2 SLOAD DUP2 PUSH20 0xFFFFFFFFFFFFFFFFFFFFFFFFFFFFFFFFFFFFFFFF MUL NOT AND SWAP1 DUP4 PUSH20 0xFFFFFFFFFFFFFFFFFFFFFFFFFFFFFFFFFFFFFFFF AND MUL OR SWAP1 SSTORE POP PUSH1 0x0 PUSH20 0xFFFFFFFFFFFFFFFFFFFFFFFFFFFFFFFFFFFFFFFF AND DUP2 PUSH20 0xFFFFFFFFFFFFFFFFFFFFFFFFFFFFFFFFFFFFFFFF AND EQ PUSH3 0x135 JUMPI PUSH3 0x134 DUP2 PUSH3 0x257 PUSH1 0x20 SHL PUSH1 0x20 SHR JUMP JUMPDEST JUMPDEST POP POP POP PUSH1 0x0 PUSH20 0xFFFFFFFFFFFFFFFFFFFFFFFFFFFFFFFFFFFFFFFF AND DUP2 PUSH20 0xFFFFFFFFFFFFFFFFFFFFFFFFFFFFFFFFFFFFFFFF AND SUB PUSH3 0x19F JUMPI PUSH1 0x40 MLOAD PUSH32 0xD92E233D00000000000000000000000000000000000000000000000000000000 DUP2 MSTORE PUSH1 0x4 ADD PUSH1 0x40 MLOAD DUP1 SWAP2 SUB SWAP1 REVERT JUMPDEST DUP1 PUSH1 0x2 PUSH1 0x0 PUSH2 0x100 EXP DUP2 SLOAD DUP2 PUSH20 0xFFFFFFFFFFFFFFFFFFFFFFFFFFFFFFFFFFFFFFFF MUL NOT AND SWAP1 DUP4 PUSH20 0xFFFFFFFFFFFFFFFFFFFFFFFFFFFFFFFFFFFFFFFF AND MUL OR SWAP1 SSTORE POP POP DUP6 PUSH1 0x80 DUP2 DUP2 MSTORE POP POP DUP4 PUSH1 0xA0 DUP2 DUP2 MSTORE POP POP DUP3 PUSH1 0xC0 DUP2 DUP2 MSTORE POP POP DUP2 PUSH4 0xFFFFFFFF AND PUSH1 0xE0 DUP2 PUSH4 0xFFFFFFFF AND DUP2 MSTORE POP POP PUSH1 0x0 PUSH1 0x4 PUSH1 0x14 PUSH2 0x100 EXP DUP2 SLOAD DUP2 PUSH1 0xFF MUL NOT AND SWAP1 DUP4 PUSH1 0x1 DUP2 GT ISZERO PUSH3 0x236 JUMPI PUSH3 0x235 PUSH3 0x5C6 JUMP JUMPDEST JUMPDEST MUL OR SWAP1 SSTORE POP TIMESTAMP PUSH1 0x5 DUP2 SWAP1 SSTORE POP DUP1 PUSH2 0x100 DUP2 DUP2 MSTORE POP POP POP POP POP POP POP POP PUSH3 0x667 JUMP JUMPDEST CALLER PUSH20 0xFFFFFFFFFFFFFFFFFFFFFFFFFFFFFFFFFFFFFFFF AND DUP2 PUSH20 0xFFFFFFFFFFFFFFFFFFFFFFFFFFFFFFFFFFFFFFFF AND SUB PUSH3 0x2C8 JUMPI PUSH1 0x40 MLOAD PUSH32 0x8C379A000000000000000000000000000000000000000000000000000000000 DUP2 MSTORE PUSH1 0x4 ADD PUSH3 0x2BF SWAP1 PUSH3 0x645 JUMP JUMPDEST PUSH1 0x40 MLOAD DUP1 SWAP2 SUB SWAP1 REVERT JUMPDEST DUP1 PUSH1 0x1 PUSH1 0x0 PUSH2 0x100 EXP DUP2 SLOAD DUP2 PUSH20 0xFFFFFFFFFFFFFFFFFFFFFFFFFFFFFFFFFFFFFFFF MUL NOT AND SWAP1 DUP4 PUSH20 0xFFFFFFFFFFFFFFFFFFFFFFFFFFFFFFFFFFFFFFFF AND MUL OR SWAP1 SSTORE POP DUP1 PUSH20 0xFFFFFFFFFFFFFFFFFFFFFFFFFFFFFFFFFFFFFFFF AND PUSH1 0x0 DUP1 SLOAD SWAP1 PUSH2 0x100 EXP SWAP1 DIV PUSH20 0xFFFFFFFFFFFFFFFFFFFFFFFFFFFFFFFFFFFFFFFF AND PUSH20 0xFFFFFFFFFFFFFFFFFFFFFFFFFFFFFFFFFFFFFFFF AND PUSH32 0xED8889F560326EB138920D842192F0EB3DD22B4F139C87A2C57538E05BAE1278 PUSH1 0x40 MLOAD PUSH1 0x40 MLOAD DUP1 SWAP2 SUB SWAP1 LOG3 POP JUMP JUMPDEST PUSH1 0x0 DUP1 REVERT JUMPDEST PUSH1 0x0 DUP2 SWAP1 POP SWAP2 SWAP1 POP JUMP JUMPDEST PUSH3 0x3A0 DUP2 PUSH3 0x38B JUMP JUMPDEST DUP2 EQ PUSH3 0x3AC JUMPI PUSH1 0x0 DUP1 REVERT JUMPDEST POP JUMP JUMPDEST PUSH1 0x0 DUP2 MLOAD SWAP1 POP PUSH3 0x3C0 DUP2 PUSH3 0x395 JUMP JUMPDEST SWAP3 SWAP2 POP POP JUMP JUMPDEST PUSH1 0x0 PUSH20 0xFFFFFFFFFFFFFFFFFFFFFFFFFFFFFFFFFFFFFFFF DUP3 AND SWAP1 POP SWAP2 SWAP1 POP JUMP JUMPDEST PUSH1 0x0 PUSH3 0x3F3 DUP3 PUSH3 0x3C6 JUMP JUMPDEST SWAP1 POP SWAP2 SWAP1 POP JUMP JUMPDEST PUSH3 0x405 DUP2 PUSH3 0x3E6 JUMP JUMPDEST DUP2 EQ PUSH3 0x411 JUMPI PUSH1 0x0 DUP1 REVERT JUMPDEST POP JUMP JUMPDEST PUSH1 0x0 DUP2 MLOAD SWAP1 POP PUSH3 0x425 DUP2 PUSH3 0x3FA JUMP JUMPDEST SWAP3 SWAP2 POP POP JUMP JUMPDEST PUSH1 0x0 DUP2 SWAP1 POP SWAP2 SWAP1 POP JUMP JUMPDEST PUSH3 0x440 DUP2 PUSH3 0x42B JUMP JUMPDEST DUP2 EQ PUSH3 0x44C JUMPI PUSH1 0x0 DUP1 REVERT JUMPDEST POP JUMP JUMPDEST PUSH1 0x0 DUP2 MLOAD SWAP1 POP PUSH3 0x460 DUP2 PUSH3 0x435 JUMP JUMPDEST SWAP3 SWAP2 POP POP JUMP JUMPDEST PUSH1 0x0 PUSH4 0xFFFFFFFF DUP3 AND SWAP1 POP SWAP2 SWAP1 POP JUMP JUMPDEST PUSH3 0x481 DUP2 PUSH3 0x466 JUMP JUMPDEST DUP2 EQ PUSH3 0x48D JUMPI PUSH1 0x0 DUP1 REVERT JUMPDEST POP JUMP JUMPDEST PUSH1 0x0 DUP2 MLOAD SWAP1 POP PUSH3 0x4A1 DUP2 PUSH3 0x476 JUMP JUMPDEST SWAP3 SWAP2 POP POP JUMP JUMPDEST PUSH1 0x0 DUP1 PUSH1 0x0 DUP1 PUSH1 0x0 DUP1 PUSH1 0xC0 DUP8 DUP10 SUB SLT ISZERO PUSH3 0x4C7 JUMPI PUSH3 0x4C6 PUSH3 0x386 JUMP JUMPDEST JUMPDEST PUSH1 0x0 PUSH3 0x4D7 DUP10 DUP3 DUP11 ADD PUSH3 0x3AF JUMP JUMPDEST SWAP7 POP POP PUSH1 0x20 PUSH3 0x4EA DUP10 DUP3 DUP11 ADD PUSH3 0x414 JUMP JUMPDEST SWAP6 POP POP PUSH1 0x40 PUSH3 0x4FD DUP10 DUP3 DUP11 ADD PUSH3 0x44F JUMP JUMPDEST SWAP5 POP POP PUSH1 0x60 PUSH3 0x510 DUP10 DUP3 DUP11 ADD PUSH3 0x3AF JUMP JUMPDEST SWAP4 POP POP PUSH1 0x80 PUSH3 0x523 DUP10 DUP3 DUP11 ADD PUSH3 0x490 JUMP JUMPDEST SWAP3 POP POP PUSH1 0xA0 PUSH3 0x536 DUP10 DUP3 DUP11 ADD PUSH3 0x3AF JUMP JUMPDEST SWAP2 POP POP SWAP3 SWAP6 POP SWAP3 SWAP6 POP SWAP3 SWAP6 JUMP JUMPDEST PUSH1 0x0 DUP3 DUP3 MSTORE PUSH1 0x20 DUP3 ADD SWAP1 POP SWAP3 SWAP2 POP POP JUMP JUMPDEST PUSH32 0x43616E6E6F7420736574206F776E657220746F207A65726F0000000000000000 PUSH1 0x0 DUP3 ADD MSTORE POP JUMP JUMPDEST PUSH1 0x0 PUSH3 0x58C PUSH1 0x18 DUP4 PUSH3 0x543 JUMP JUMPDEST SWAP2 POP PUSH3 0x599 DUP3 PUSH3 0x554 JUMP JUMPDEST PUSH1 0x20 DUP3 ADD SWAP1 POP SWAP2 SWAP1 POP JUMP JUMPDEST PUSH1 0x0 PUSH1 0x20 DUP3 ADD SWAP1 POP DUP2 DUP2 SUB PUSH1 0x0 DUP4 ADD MSTORE PUSH3 0x5BF DUP2 PUSH3 0x57D JUMP JUMPDEST SWAP1 POP SWAP2 SWAP1 POP JUMP JUMPDEST PUSH32 0x4E487B7100000000000000000000000000000000000000000000000000000000 PUSH1 0x0 MSTORE PUSH1 0x21 PUSH1 0x4 MSTORE PUSH1 0x24 PUSH1 0x0 REVERT JUMPDEST PUSH32 0x43616E6E6F74207472616E7366657220746F2073656C66000000000000000000 PUSH1 0x0 DUP3 ADD MSTORE POP JUMP JUMPDEST PUSH1 0x0 PUSH3 0x62D PUSH1 0x17 DUP4 PUSH3 0x543 JUMP JUMPDEST SWAP2 POP PUSH3 0x63A DUP3 PUSH3 0x5F5 JUMP JUMPDEST PUSH1 0x20 DUP3 ADD SWAP1 POP SWAP2 SWAP1 POP JUMP JUMPDEST PUSH1 0x0 PUSH1 0x20 DUP3 ADD SWAP1 POP DUP2 DUP2 SUB PUSH1 0x0 DUP4 ADD MSTORE PUSH3 0x660 DUP2 PUSH3 0x61E JUMP JUMPDEST SWAP1 POP SWAP2 SWAP1 POP JUMP JUMPDEST PUSH1 0x80 MLOAD PUSH1 0xA0 MLOAD PUSH1 0xC0 MLOAD PUSH1 0xE0 MLOAD PUSH2 0x100 MLOAD PUSH2 0x1EC0 PUSH3 0x6BA PUSH1 0x0 CODECOPY PUSH1 0x0 DUP2 DUP2 PUSH2 0x925 ADD MSTORE PUSH2 0xD48 ADD MSTORE PUSH1 0x0 PUSH2 0x642 ADD MSTORE PUSH1 0x0 PUSH2 0x611 ADD MSTORE PUSH1 0x0 PUSH2 0x5EB ADD MSTORE PUSH1 0x0 DUP2 DUP2 PUSH2 0x400 ADD MSTORE PUSH2 0x776 ADD MSTORE PUSH2 0x1EC0 PUSH1 0x0 RETURN INVALID PUSH1 0x80 PUSH1 0x40 MSTORE PUSH1 0x4 CALLDATASIZE LT PUSH2 0x109 JUMPI PUSH1 0x0 CALLDATALOAD PUSH1 0xE0 SHR DUP1 PUSH4 0x8DA5CB5B GT PUSH2 0x95 JUMPI DUP1 PUSH4 0xD3DF9658 GT PUSH2 0x64 JUMPI DUP1 PUSH4 0xD3DF9658 EQ PUSH2 0x315 JUMPI DUP1 PUSH4 0xE55AE4E8 EQ PUSH2 0x340 JUMPI DUP1 PUSH4 0xF2FDE38B EQ PUSH2 0x37D JUMPI DUP1 PUSH4 0xF43B52CB EQ PUSH2 0x3A6 JUMPI DUP1 PUSH4 0xFD6673F5 EQ PUSH2 0x3D1 JUMPI PUSH2 0x109 JUMP JUMPDEST DUP1 PUSH4 0x8DA5CB5B EQ PUSH2 0x26B JUMPI DUP1 PUSH4 0x8EA98117 EQ PUSH2 0x296 JUMPI DUP1 PUSH4 0x91AD27B4 EQ PUSH2 0x2BF JUMPI DUP1 PUSH4 0x9ECCACF6 EQ PUSH2 0x2EA JUMPI PUSH2 0x109 JUMP JUMPDEST DUP1 PUSH4 0x53A2C19A GT PUSH2 0xDC JUMPI DUP1 PUSH4 0x53A2C19A EQ PUSH2 0x1B6 JUMPI DUP1 PUSH4 0x6B68C03C EQ PUSH2 0x1E1 JUMPI DUP1 PUSH4 0x6C77F989 EQ PUSH2 0x20C JUMPI DUP1 PUSH4 0x6E04FF0D EQ PUSH2 0x216 JUMPI DUP1 PUSH4 0x79BA5097 EQ PUSH2 0x254 JUMPI PUSH2 0x109 JUMP JUMPDEST DUP1 PUSH4 0x9BC33A7 EQ PUSH2 0x10E JUMPI DUP1 PUSH4 0x1FE543E3 EQ PUSH2 0x139 JUMPI DUP1 PUSH4 0x4585E33B EQ PUSH2 0x162 JUMPI DUP1 PUSH4 0x473F1DDC EQ PUSH2 0x18B JUMPI JUMPDEST PUSH1 0x0 DUP1 REVERT JUMPDEST CALLVALUE DUP1 ISZERO PUSH2 0x11A JUMPI PUSH1 0x0 DUP1 REVERT JUMPDEST POP PUSH2 0x123 PUSH2 0x3FC JUMP JUMPDEST PUSH1 0x40 MLOAD PUSH2 0x130 SWAP2 SWAP1 PUSH2 0x1356 JUMP JUMPDEST PUSH1 0x40 MLOAD DUP1 SWAP2 SUB SWAP1 RETURN JUMPDEST CALLVALUE DUP1 ISZERO PUSH2 0x145 JUMPI PUSH1 0x0 DUP1 REVERT JUMPDEST POP PUSH2 0x160 PUSH1 0x4 DUP1 CALLDATASIZE SUB DUP2 ADD SWAP1 PUSH2 0x15B SWAP2 SWAP1 PUSH2 0x1416 JUMP JUMPDEST PUSH2 0x424 JUMP JUMPDEST STOP JUMPDEST CALLVALUE DUP1 ISZERO PUSH2 0x16E JUMPI PUSH1 0x0 DUP1 REVERT JUMPDEST POP PUSH2 0x189 PUSH1 0x4 DUP1 CALLDATASIZE SUB DUP2 ADD SWAP1 PUSH2 0x184 SWAP2 SWAP1 PUSH2 0x14CC JUMP JUMPDEST PUSH2 0x4EA JUMP JUMPDEST STOP JUMPDEST CALLVALUE DUP1 ISZERO PUSH2 0x197 JUMPI PUSH1 0x0 DUP1 REVERT JUMPDEST POP PUSH2 0x1A0 PUSH2 0x72A JUMP JUMPDEST PUSH1 0x40 MLOAD PUSH2 0x1AD SWAP2 SWAP1 PUSH2 0x155A JUMP JUMPDEST PUSH1 0x40 MLOAD DUP1 SWAP2 SUB SWAP1 RETURN JUMPDEST CALLVALUE DUP1 ISZERO PUSH2 0x1C2 JUMPI PUSH1 0x0 DUP1 REVERT JUMPDEST POP PUSH2 0x1CB PUSH2 0x754 JUMP JUMPDEST PUSH1 0x40 MLOAD PUSH2 0x1D8 SWAP2 SWAP1 PUSH2 0x1594 JUMP JUMPDEST PUSH1 0x40 MLOAD DUP1 SWAP2 SUB SWAP1 RETURN JUMPDEST CALLVALUE DUP1 ISZERO PUSH2 0x1ED JUMPI PUSH1 0x0 DUP1 REVERT JUMPDEST POP PUSH2 0x1F6 PUSH2 0x75D JUMP JUMPDEST PUSH1 0x40 MLOAD PUSH2 0x203 SWAP2 SWAP1 PUSH2 0x1626 JUMP JUMPDEST PUSH1 0x40 MLOAD DUP1 SWAP2 SUB SWAP1 RETURN JUMPDEST PUSH2 0x214 PUSH2 0x774 JUMP JUMPDEST STOP JUMPDEST CALLVALUE DUP1 ISZERO PUSH2 0x222 JUMPI PUSH1 0x0 DUP1 REVERT JUMPDEST POP PUSH2 0x23D PUSH1 0x4 DUP1 CALLDATASIZE SUB DUP2 ADD SWAP1 PUSH2 0x238 SWAP2 SWAP1 PUSH2 0x1782 JUMP JUMPDEST PUSH2 0x8E3 JUMP JUMPDEST PUSH1 0x40 MLOAD PUSH2 0x24B SWAP3 SWAP2 SWAP1 PUSH2 0x1865 JUMP JUMPDEST PUSH1 0x40 MLOAD DUP1 SWAP2 SUB SWAP1 RETURN JUMPDEST CALLVALUE DUP1 ISZERO PUSH2 0x260 JUMPI PUSH1 0x0 DUP1 REVERT JUMPDEST POP PUSH2 0x269 PUSH2 0x9A5 JUMP JUMPDEST STOP JUMPDEST CALLVALUE DUP1 ISZERO PUSH2 0x277 JUMPI PUSH1 0x0 DUP1 REVERT JUMPDEST POP PUSH2 0x280 PUSH2 0xB3A JUMP JUMPDEST PUSH1 0x40 MLOAD PUSH2 0x28D SWAP2 SWAP1 PUSH2 0x155A JUMP JUMPDEST PUSH1 0x40 MLOAD DUP1 SWAP2 SUB SWAP1 RETURN JUMPDEST CALLVALUE DUP1 ISZERO PUSH2 0x2A2 JUMPI PUSH1 0x0 DUP1 REVERT JUMPDEST POP PUSH2 0x2BD PUSH1 0x4 DUP1 CALLDATASIZE SUB DUP2 ADD SWAP1 PUSH2 0x2B8 SWAP2 SWAP1 PUSH2 0x18C1 JUMP JUMPDEST PUSH2 0xB63 JUMP JUMPDEST STOP JUMPDEST CALLVALUE DUP1 ISZERO PUSH2 0x2CB JUMPI PUSH1 0x0 DUP1 REVERT JUMPDEST POP PUSH2 0x2D4 PUSH2 0xD44 JUMP JUMPDEST PUSH1 0x40 MLOAD PUSH2 0x2E1 SWAP2 SWAP1 PUSH2 0x1356 JUMP JUMPDEST PUSH1 0x40 MLOAD DUP1 SWAP2 SUB SWAP1 RETURN JUMPDEST CALLVALUE DUP1 ISZERO PUSH2 0x2F6 JUMPI PUSH1 0x0 DUP1 REVERT JUMPDEST POP PUSH2 0x2FF PUSH2 0xD6C JUMP JUMPDEST PUSH1 0x40 MLOAD PUSH2 0x30C SWAP2 SWAP1 PUSH2 0x194D JUMP JUMPDEST PUSH1 0x40 MLOAD DUP1 SWAP2 SUB SWAP1 RETURN JUMPDEST CALLVALUE DUP1 ISZERO PUSH2 0x321 JUMPI PUSH1 0x0 DUP1 REVERT JUMPDEST POP PUSH2 0x32A PUSH2 0xD92 JUMP JUMPDEST PUSH1 0x40 MLOAD PUSH2 0x337 SWAP2 SWAP1 PUSH2 0x1356 JUMP JUMPDEST PUSH1 0x40 MLOAD DUP1 SWAP2 SUB SWAP1 RETURN JUMPDEST CALLVALUE DUP1 ISZERO PUSH2 0x34C JUMPI PUSH1 0x0 DUP1 REVERT JUMPDEST POP PUSH2 0x367 PUSH1 0x4 DUP1 CALLDATASIZE SUB DUP2 ADD SWAP1 PUSH2 0x362 SWAP2 SWAP1 PUSH2 0x1968 JUMP JUMPDEST PUSH2 0xD9C JUMP JUMPDEST PUSH1 0x40 MLOAD PUSH2 0x374 SWAP2 SWAP1 PUSH2 0x155A JUMP JUMPDEST PUSH1 0x40 MLOAD DUP1 SWAP2 SUB SWAP1 RETURN JUMPDEST CALLVALUE DUP1 ISZERO PUSH2 0x389 JUMPI PUSH1 0x0 DUP1 REVERT JUMPDEST POP PUSH2 0x3A4 PUSH1 0x4 DUP1 CALLDATASIZE SUB DUP2 ADD SWAP1 PUSH2 0x39F SWAP2 SWAP1 PUSH2 0x18C1 JUMP JUMPDEST PUSH2 0xDE4 JUMP JUMPDEST STOP JUMPDEST CALLVALUE DUP1 ISZERO PUSH2 0x3B2 JUMPI PUSH1 0x0 DUP1 REVERT JUMPDEST POP PUSH2 0x3BB PUSH2 0xDF8 JUMP JUMPDEST PUSH1 0x40 MLOAD PUSH2 0x3C8 SWAP2 SWAP1 PUSH2 0x1356 JUMP JUMPDEST PUSH1 0x40 MLOAD DUP1 SWAP2 SUB SWAP1 RETURN JUMPDEST CALLVALUE DUP1 ISZERO PUSH2 0x3DD JUMPI PUSH1 0x0 DUP1 REVERT JUMPDEST POP PUSH2 0x3E6 PUSH2 0xE02 JUMP JUMPDEST PUSH1 0x40 MLOAD PUSH2 0x3F3 SWAP2 SWAP1 PUSH2 0x1356 JUMP JUMPDEST PUSH1 0x40 MLOAD DUP1 SWAP2 SUB SWAP1 RETURN JUMPDEST PUSH1 0x0 PUSH32 0x0 SWAP1 POP SWAP1 JUMP JUMPDEST PUSH1 0x2 PUSH1 0x0 SWAP1 SLOAD SWAP1 PUSH2 0x100 EXP SWAP1 DIV PUSH20 0xFFFFFFFFFFFFFFFFFFFFFFFFFFFFFFFFFFFFFFFF AND PUSH20 0xFFFFFFFFFFFFFFFFFFFFFFFFFFFFFFFFFFFFFFFF AND CALLER PUSH20 0xFFFFFFFFFFFFFFFFFFFFFFFFFFFFFFFFFFFFFFFF AND EQ PUSH2 0x4DA JUMPI CALLER PUSH1 0x2 PUSH1 0x0 SWAP1 SLOAD SWAP1 PUSH2 0x100 EXP SWAP1 DIV PUSH20 0xFFFFFFFFFFFFFFFFFFFFFFFFFFFFFFFFFFFFFFFF AND PUSH1 0x40 MLOAD PUSH32 0x1CF993F400000000000000000000000000000000000000000000000000000000 DUP2 MSTORE PUSH1 0x4 ADD PUSH2 0x4D1 SWAP3 SWAP2 SWAP1 PUSH2 0x1995 JUMP JUMPDEST PUSH1 0x40 MLOAD DUP1 SWAP2 SUB SWAP1 REVERT JUMPDEST PUSH2 0x4E5 DUP4 DUP4 DUP4 PUSH2 0xE0F JUMP JUMPDEST POP POP POP JUMP JUMPDEST PUSH1 0x0 PUSH2 0x504 PUSH1 0x40 MLOAD DUP1 PUSH1 0x20 ADD PUSH1 0x40 MSTORE DUP1 PUSH1 0x0 DUP2 MSTORE POP PUSH2 0x8E3 JUMP JUMPDEST POP SWAP1 POP DUP1 PUSH2 0x573 JUMPI SELFBALANCE PUSH1 0x3 DUP1 SLOAD SWAP1 POP PUSH1 0x4 PUSH1 0x14 SWAP1 SLOAD SWAP1 PUSH2 0x100 EXP SWAP1 DIV PUSH1 0xFF AND PUSH1 0x1 DUP2 GT ISZERO PUSH2 0x535 JUMPI PUSH2 0x534 PUSH2 0x15AF JUMP JUMPDEST JUMPDEST PUSH1 0x40 MLOAD PUSH32 0xC2C9232700000000000000000000000000000000000000000000000000000000 DUP2 MSTORE PUSH1 0x4 ADD PUSH2 0x56A SWAP4 SWAP3 SWAP2 SWAP1 PUSH2 0x19BE JUMP JUMPDEST PUSH1 0x40 MLOAD DUP1 SWAP2 SUB SWAP1 REVERT JUMPDEST PUSH1 0x1 PUSH1 0x4 PUSH1 0x14 PUSH2 0x100 EXP DUP2 SLOAD DUP2 PUSH1 0xFF MUL NOT AND SWAP1 DUP4 PUSH1 0x1 DUP2 GT ISZERO PUSH2 0x599 JUMPI PUSH2 0x598 PUSH2 0x15AF JUMP JUMPDEST JUMPDEST MUL OR SWAP1 SSTORE POP PUSH1 0x0 PUSH1 0x2 PUSH1 0x0 SWAP1 SLOAD SWAP1 PUSH2 0x100 EXP SWAP1 DIV PUSH20 0xFFFFFFFFFFFFFFFFFFFFFFFFFFFFFFFFFFFFFFFF AND PUSH20 0xFFFFFFFFFFFFFFFFFFFFFFFFFFFFFFFFFFFFFFFF AND PUSH4 0x9B1C385E PUSH1 0x40 MLOAD DUP1 PUSH1 0xC0 ADD PUSH1 0x40 MSTORE DUP1 PUSH32 0x0 DUP2 MSTORE PUSH1 0x20 ADD PUSH32 0x0 DUP2 MSTORE PUSH1 0x20 ADD PUSH1 0x3 PUSH2 0xFFFF AND DUP2 MSTORE PUSH1 0x20 ADD PUSH32 0x0 PUSH4 0xFFFFFFFF AND DUP2 MSTORE PUSH1 0x20 ADD PUSH1 0x1 PUSH4 0xFFFFFFFF AND DUP2 MSTORE PUSH1 0x20 ADD PUSH2 0x693 PUSH1 0x40 MLOAD DUP1 PUSH1 0x20 ADD PUSH1 0x40 MSTORE DUP1 PUSH1 0x0 ISZERO ISZERO DUP2 MSTORE POP PUSH2 0x1042 JUMP JUMPDEST DUP2 MSTORE POP PUSH1 0x40 MLOAD DUP3 PUSH4 0xFFFFFFFF AND PUSH1 0xE0 SHL DUP2 MSTORE PUSH1 0x4 ADD PUSH2 0x6B2 SWAP2 SWAP1 PUSH2 0x1B1C JUMP JUMPDEST PUSH1 0x20 PUSH1 0x40 MLOAD DUP1 DUP4 SUB DUP2 PUSH1 0x0 DUP8 GAS CALL ISZERO DUP1 ISZERO PUSH2 0x6D1 JUMPI RETURNDATASIZE PUSH1 0x0 DUP1 RETURNDATACOPY RETURNDATASIZE PUSH1 0x0 REVERT JUMPDEST POP POP POP POP PUSH1 0x40 MLOAD RETURNDATASIZE PUSH1 0x1F NOT PUSH1 0x1F DUP3 ADD AND DUP3 ADD DUP1 PUSH1 0x40 MSTORE POP DUP2 ADD SWAP1 PUSH2 0x6F5 SWAP2 SWAP1 PUSH2 0x1B53 JUMP JUMPDEST SWAP1 POP DUP1 PUSH32 0x6720EA74D68A15590644EC8A7A44A03CD3EB4301F1CC2225EAD36F62797369C0 PUSH1 0x40 MLOAD PUSH1 0x40 MLOAD DUP1 SWAP2 SUB SWAP1 LOG2 POP POP POP POP JUMP JUMPDEST PUSH1 0x0 PUSH1 0x4 PUSH1 0x0 SWAP1 SLOAD SWAP1 PUSH2 0x100 EXP SWAP1 DIV PUSH20 0xFFFFFFFFFFFFFFFFFFFFFFFFFFFFFFFFFFFFFFFF AND SWAP1 POP SWAP1 JUMP JUMPDEST PUSH1 0x0 PUSH1 0x1 SWAP1 POP SWAP1 JUMP JUMPDEST PUSH1 0x0 PUSH1 0x4 PUSH1 0x14 SWAP1 SLOAD SWAP1 PUSH2 0x100 EXP SWAP1 DIV PUSH1 0xFF AND SWAP1 POP SWAP1 JUMP JUMPDEST PUSH32 0x0 CALLVALUE LT ISZERO PUSH2 0x7CE JUMPI PUSH1 0x40 MLOAD PUSH32 0xEC4BDD1100000000000000000000000000000000000000000000000000000000 DUP2 MSTORE PUSH1 0x4 ADD PUSH1 0x40 MLOAD DUP1 SWAP2 SUB SWAP1 REVERT JUMPDEST PUSH1 0x0 PUSH1 0x1 DUP2 GT ISZERO PUSH2 0x7E2 JUMPI PUSH2 0x7E1 PUSH2 0x15AF JUMP JUMPDEST JUMPDEST PUSH1 0x4 PUSH1 0x14 SWAP1 SLOAD SWAP1 PUSH2 0x100 EXP SWAP1 DIV PUSH1 0xFF AND PUSH1 0x1 DUP2 GT ISZERO PUSH2 0x804 JUMPI PUSH2 0x803 PUSH2 0x15AF JUMP JUMPDEST JUMPDEST EQ PUSH2 0x83B JUMPI PUSH1 0x40 MLOAD PUSH32 0x4FBADAD00000000000000000000000000000000000000000000000000000000 DUP2 MSTORE PUSH1 0x4 ADD PUSH1 0x40 MLOAD DUP1 SWAP2 SUB SWAP1 REVERT JUMPDEST PUSH1 0x3 CALLER SWAP1 DUP1 PUSH1 0x1 DUP2 SLOAD ADD DUP1 DUP3 SSTORE DUP1 SWAP2 POP POP PUSH1 0x1 SWAP1 SUB SWAP1 PUSH1 0x0 MSTORE PUSH1 0x20 PUSH1 0x0 KECCAK256 ADD PUSH1 0x0 SWAP1 SWAP2 SWAP1 SWAP2 SWAP1 SWAP2 PUSH2 0x100 EXP DUP2 SLOAD DUP2 PUSH20 0xFFFFFFFFFFFFFFFFFFFFFFFFFFFFFFFFFFFFFFFF MUL NOT AND SWAP1 DUP4 PUSH20 0xFFFFFFFFFFFFFFFFFFFFFFFFFFFFFFFFFFFFFFFF AND MUL OR SWAP1 SSTORE POP CALLER PUSH20 0xFFFFFFFFFFFFFFFFFFFFFFFFFFFFFFFFFFFFFFFF AND PUSH32 0xBBB3D1929B2569BBA0F8B97C17720C8C4160A7A17E4A09134240338255CF1701 PUSH1 0x40 MLOAD PUSH1 0x40 MLOAD DUP1 SWAP2 SUB SWAP1 LOG2 JUMP JUMPDEST PUSH1 0x0 PUSH1 0x60 PUSH1 0x0 DUP1 PUSH1 0x1 DUP2 GT ISZERO PUSH2 0x8FC JUMPI PUSH2 0x8FB PUSH2 0x15AF JUMP JUMPDEST JUMPDEST PUSH1 0x4 PUSH1 0x14 SWAP1 SLOAD SWAP1 PUSH2 0x100 EXP SWAP1 DIV PUSH1 0xFF AND PUSH1 0x1 DUP2 GT ISZERO PUSH2 0x91E JUMPI PUSH2 0x91D PUSH2 0x15AF JUMP JUMPDEST JUMPDEST EQ SWAP1 POP PUSH1 0x0 PUSH32 0x0 PUSH1 0x5 SLOAD TIMESTAMP PUSH2 0x952 SWAP2 SWAP1 PUSH2 0x1BAF JUMP JUMPDEST LT ISZERO SWAP1 POP PUSH1 0x0 DUP1 PUSH1 0x3 DUP1 SLOAD SWAP1 POP GT SWAP1 POP PUSH1 0x0 DUP1 SELFBALANCE GT SWAP1 POP DUP4 DUP1 ISZERO PUSH2 0x973 JUMPI POP DUP3 JUMPDEST DUP1 ISZERO PUSH2 0x97C JUMPI POP DUP2 JUMPDEST DUP1 ISZERO PUSH2 0x985 JUMPI POP DUP1 JUMPDEST SWAP6 POP DUP6 PUSH1 0x40 MLOAD DUP1 PUSH1 0x20 ADD PUSH1 0x40 MSTORE DUP1 PUSH1 0x0 DUP2 MSTORE POP SWAP6 POP SWAP6 POP POP POP POP POP SWAP2 POP SWAP2 JUMP JUMPDEST PUSH1 0x1 PUSH1 0x0 SWAP1 SLOAD SWAP1 PUSH2 0x100 EXP SWAP1 DIV PUSH20 0xFFFFFFFFFFFFFFFFFFFFFFFFFFFFFFFFFFFFFFFF AND PUSH20 0xFFFFFFFFFFFFFFFFFFFFFFFFFFFFFFFFFFFFFFFF AND CALLER PUSH20 0xFFFFFFFFFFFFFFFFFFFFFFFFFFFFFFFFFFFFFFFF AND EQ PUSH2 0xA35 JUMPI PUSH1 0x40 MLOAD PUSH32 0x8C379A000000000000000000000000000000000000000000000000000000000 DUP2 MSTORE PUSH1 0x4 ADD PUSH2 0xA2C SWAP1 PUSH2 0x1C40 JUMP JUMPDEST PUSH1 0x40 MLOAD DUP1 SWAP2 SUB SWAP1 REVERT JUMPDEST PUSH1 0x0 DUP1 PUSH1 0x0 SWAP1 SLOAD SWAP1 PUSH2 0x100 EXP SWAP1 DIV PUSH20 0xFFFFFFFFFFFFFFFFFFFFFFFFFFFFFFFFFFFFFFFF AND SWAP1 POP CALLER PUSH1 0x0 DUP1 PUSH2 0x100 EXP DUP2 SLOAD DUP2 PUSH20 0xFFFFFFFFFFFFFFFFFFFFFFFFFFFFFFFFFFFFFFFF MUL NOT AND SWAP1 DUP4 PUSH20 0xFFFFFFFFFFFFFFFFFFFFFFFFFFFFFFFFFFFFFFFF AND MUL OR SWAP1 SSTORE POP PUSH1 0x0 PUSH1 0x1 PUSH1 0x0 PUSH2 0x100 EXP DUP2 SLOAD DUP2 PUSH20 0xFFFFFFFFFFFFFFFFFFFFFFFFFFFFFFFFFFFFFFFF MUL NOT AND SWAP1 DUP4 PUSH20 0xFFFFFFFFFFFFFFFFFFFFFFFFFFFFFFFFFFFFFFFF AND MUL OR SWAP1 SSTORE POP CALLER PUSH20 0xFFFFFFFFFFFFFFFFFFFFFFFFFFFFFFFFFFFFFFFF AND DUP2 PUSH20 0xFFFFFFFFFFFFFFFFFFFFFFFFFFFFFFFFFFFFFFFF AND PUSH32 0x8BE0079C531659141344CD1FD0A4F28419497F9722A3DAAFE3B4186F6B6457E0 PUSH1 0x40 MLOAD PUSH1 0x40 MLOAD DUP1 SWAP2 SUB SWAP1 LOG3 POP JUMP JUMPDEST PUSH1 0x0 DUP1 PUSH1 0x0 SWAP1 SLOAD SWAP1 PUSH2 0x100 EXP SWAP1 DIV PUSH20 0xFFFFFFFFFFFFFFFFFFFFFFFFFFFFFFFFFFFFFFFF AND SWAP1 POP SWAP1 JUMP JUMPDEST PUSH2 0xB6B PUSH2 0xB3A JUMP JUMPDEST PUSH20 0xFFFFFFFFFFFFFFFFFFFFFFFFFFFFFFFFFFFFFFFF AND CALLER PUSH20 0xFFFFFFFFFFFFFFFFFFFFFFFFFFFFFFFFFFFFFFFF AND EQ ISZERO DUP1 ISZERO PUSH2 0xBF4 JUMPI POP PUSH1 0x2 PUSH1 0x0 SWAP1 SLOAD SWAP1 PUSH2 0x100 EXP SWAP1 DIV PUSH20 0xFFFFFFFFFFFFFFFFFFFFFFFFFFFFFFFFFFFFFFFF AND PUSH20 0xFFFFFFFFFFFFFFFFFFFFFFFFFFFFFFFFFFFFFFFF AND CALLER PUSH20 0xFFFFFFFFFFFFFFFFFFFFFFFFFFFFFFFFFFFFFFFF AND EQ ISZERO JUMPDEST ISZERO PUSH2 0xC63 JUMPI CALLER PUSH2 0xC02 PUSH2 0xB3A JUMP JUMPDEST PUSH1 0x2 PUSH1 0x0 SWAP1 SLOAD SWAP1 PUSH2 0x100 EXP SWAP1 DIV PUSH20 0xFFFFFFFFFFFFFFFFFFFFFFFFFFFFFFFFFFFFFFFF AND PUSH1 0x40 MLOAD PUSH32 0x61DB9C100000000000000000000000000000000000000000000000000000000 DUP2 MSTORE PUSH1 0x4 ADD PUSH2 0xC5A SWAP4 SWAP3 SWAP2 SWAP1 PUSH2 0x1C60 JUMP JUMPDEST PUSH1 0x40 MLOAD DUP1 SWAP2 SUB SWAP1 REVERT JUMPDEST PUSH1 0x0 PUSH20 0xFFFFFFFFFFFFFFFFFFFFFFFFFFFFFFFFFFFFFFFF AND DUP2 PUSH20 0xFFFFFFFFFFFFFFFFFFFFFFFFFFFFFFFFFFFFFFFF AND SUB PUSH2 0xCC9 JUMPI PUSH1 0x40 MLOAD PUSH32 0xD92E233D00000000000000000000000000000000000000000000000000000000 DUP2 MSTORE PUSH1 0x4 ADD PUSH1 0x40 MLOAD DUP1 SWAP2 SUB SWAP1 REVERT JUMPDEST DUP1 PUSH1 0x2 PUSH1 0x0 PUSH2 0x100 EXP DUP2 SLOAD DUP2 PUSH20 0xFFFFFFFFFFFFFFFFFFFFFFFFFFFFFFFFFFFFFFFF MUL NOT AND SWAP1 DUP4 PUSH20 0xFFFFFFFFFFFFFFFFFFFFFFFFFFFFFFFFFFFFFFFF AND MUL OR SWAP1 SSTORE POP PUSH32 0xD1A6A14209A385A964D036E404CB5CFB71F4000CDB03C9366292430787261BE6 DUP2 PUSH1 0x40 MLOAD PUSH2 0xD39 SWAP2 SWAP1 PUSH2 0x155A JUMP JUMPDEST PUSH1 0x40 MLOAD DUP1 SWAP2 SUB SWAP1 LOG1 POP JUMP JUMPDEST PUSH1 0x0 PUSH32 0x0 SWAP1 POP SWAP1 JUMP JUMPDEST PUSH1 0x2 PUSH1 0x0 SWAP1 SLOAD SWAP1 PUSH2 0x100 EXP SWAP1 DIV PUSH20 0xFFFFFFFFFFFFFFFFFFFFFFFFFFFFFFFFFFFFFFFF AND DUP2 JUMP JUMPDEST PUSH1 0x0 PUSH1 0x5 SLOAD SWAP1 POP SWAP1 JUMP JUMPDEST PUSH1 0x0 PUSH1 0x3 DUP3 DUP2 SLOAD DUP2 LT PUSH2 0xDB2 JUMPI PUSH2 0xDB1 PUSH2 0x1C97 JUMP JUMPDEST JUMPDEST SWAP1 PUSH1 0x0 MSTORE PUSH1 0x20 PUSH1 0x0 KECCAK256 ADD PUSH1 0x0 SWAP1 SLOAD SWAP1 PUSH2 0x100 EXP SWAP1 DIV PUSH20 0xFFFFFFFFFFFFFFFFFFFFFFFFFFFFFFFFFFFFFFFF AND SWAP1 POP SWAP2 SWAP1 POP JUMP JUMPDEST PUSH2 0xDEC PUSH2 0x10DA JUMP JUMPDEST PUSH2 0xDF5 DUP2 PUSH2 0x116A JUMP JUMPDEST POP JUMP JUMPDEST PUSH1 0x0 PUSH1 0x5 SLOAD SWAP1 POP SWAP1 JUMP JUMPDEST PUSH1 0x0 PUSH1 0x3 DUP1 SLOAD SWAP1 POP SWAP1 POP SWAP1 JUMP JUMPDEST PUSH1 0x0 PUSH1 0x3 DUP1 SLOAD SWAP1 POP DUP4 DUP4 PUSH1 0x0 DUP2 DUP2 LT PUSH2 0xE2B JUMPI PUSH2 0xE2A PUSH2 0x1C97 JUMP JUMPDEST JUMPDEST SWAP1 POP PUSH1 0x20 MUL ADD CALLDATALOAD PUSH2 0xE3C SWAP2 SWAP1 PUSH2 0x1CF5 JUMP JUMPDEST SWAP1 POP PUSH1 0x0 PUSH1 0x3 DUP3 DUP2 SLOAD DUP2 LT PUSH2 0xE54 JUMPI PUSH2 0xE53 PUSH2 0x1C97 JUMP JUMPDEST JUMPDEST SWAP1 PUSH1 0x0 MSTORE PUSH1 0x20 PUSH1 0x0 KECCAK256 ADD PUSH1 0x0 SWAP1 SLOAD SWAP1 PUSH2 0x100 EXP SWAP1 DIV PUSH20 0xFFFFFFFFFFFFFFFFFFFFFFFFFFFFFFFFFFFFFFFF AND SWAP1 POP DUP1 PUSH1 0x4 PUSH1 0x0 PUSH2 0x100 EXP DUP2 SLOAD DUP2 PUSH20 0xFFFFFFFFFFFFFFFFFFFFFFFFFFFFFFFFFFFFFFFF MUL NOT AND SWAP1 DUP4 PUSH20 0xFFFFFFFFFFFFFFFFFFFFFFFFFFFFFFFFFFFFFFFF AND MUL OR SWAP1 SSTORE POP PUSH1 0x0 PUSH1 0x4 PUSH1 0x14 PUSH2 0x100 EXP DUP2 SLOAD DUP2 PUSH1 0xFF MUL NOT AND SWAP1 DUP4 PUSH1 0x1 DUP2 GT ISZERO PUSH2 0xEE8 JUMPI PUSH2 0xEE7 PUSH2 0x15AF JUMP JUMPDEST JUMPDEST MUL OR SWAP1 SSTORE POP PUSH1 0x0 PUSH8 0xFFFFFFFFFFFFFFFF DUP2 GT ISZERO PUSH2 0xF08 JUMPI PUSH2 0xF07 PUSH2 0x1657 JUMP JUMPDEST JUMPDEST PUSH1 0x40 MLOAD SWAP1 DUP1 DUP3 MSTORE DUP1 PUSH1 0x20 MUL PUSH1 0x20 ADD DUP3 ADD PUSH1 0x40 MSTORE DUP1 ISZERO PUSH2 0xF36 JUMPI DUP2 PUSH1 0x20 ADD PUSH1 0x20 DUP3 MUL DUP1 CALLDATASIZE DUP4 CALLDATACOPY DUP1 DUP3 ADD SWAP2 POP POP SWAP1 POP JUMPDEST POP PUSH1 0x3 SWAP1 DUP1 MLOAD SWAP1 PUSH1 0x20 ADD SWAP1 PUSH2 0xF4C SWAP3 SWAP2 SWAP1 PUSH2 0x1296 JUMP JUMPDEST POP TIMESTAMP PUSH1 0x5 DUP2 SWAP1 SSTORE POP PUSH1 0x0 DUP2 PUSH20 0xFFFFFFFFFFFFFFFFFFFFFFFFFFFFFFFFFFFFFFFF AND SELFBALANCE PUSH1 0x40 MLOAD PUSH2 0xF7A SWAP1 PUSH2 0x1D57 JUMP JUMPDEST PUSH1 0x0 PUSH1 0x40 MLOAD DUP1 DUP4 SUB DUP2 DUP6 DUP8 GAS CALL SWAP3 POP POP POP RETURNDATASIZE DUP1 PUSH1 0x0 DUP2 EQ PUSH2 0xFB7 JUMPI PUSH1 0x40 MLOAD SWAP2 POP PUSH1 0x1F NOT PUSH1 0x3F RETURNDATASIZE ADD AND DUP3 ADD PUSH1 0x40 MSTORE RETURNDATASIZE DUP3 MSTORE RETURNDATASIZE PUSH1 0x0 PUSH1 0x20 DUP5 ADD RETURNDATACOPY PUSH2 0xFBC JUMP JUMPDEST PUSH1 0x60 SWAP2 POP JUMPDEST POP POP SWAP1 POP DUP1 PUSH2 0xFF7 JUMPI PUSH1 0x40 MLOAD PUSH32 0x1C94012000000000000000000000000000000000000000000000000000000000 DUP2 MSTORE PUSH1 0x4 ADD PUSH1 0x40 MLOAD DUP1 SWAP2 SUB SWAP1 REVERT JUMPDEST DUP2 PUSH20 0xFFFFFFFFFFFFFFFFFFFFFFFFFFFFFFFFFFFFFFFF AND PUSH32 0xB896F9276CF1B0DBE15C17DD5B14B9DC204C39D78658EA01C3DB123FCE011183 PUSH1 0x40 MLOAD PUSH1 0x40 MLOAD DUP1 SWAP2 SUB SWAP1 LOG2 POP POP POP POP POP POP JUMP JUMPDEST PUSH1 0x60 PUSH32 0x92FD13387C7FE7BEFBC38D303D6468778FB9731BC4583F17D92989C6FCFDEAAA DUP3 PUSH1 0x40 MLOAD PUSH1 0x24 ADD PUSH2 0x1076 SWAP2 SWAP1 PUSH2 0x1D97 JUMP JUMPDEST PUSH1 0x40 MLOAD PUSH1 0x20 DUP2 DUP4 SUB SUB DUP2 MSTORE SWAP1 PUSH1 0x40 MSTORE SWAP1 PUSH28 0xFFFFFFFFFFFFFFFFFFFFFFFFFFFFFFFFFFFFFFFFFFFFFFFFFFFFFFFF NOT AND PUSH1 0x20 DUP3 ADD DUP1 MLOAD PUSH28 0xFFFFFFFFFFFFFFFFFFFFFFFFFFFFFFFFFFFFFFFFFFFFFFFFFFFFFFFF DUP4 DUP2 DUP4 AND OR DUP4 MSTORE POP POP POP POP SWAP1 POP SWAP2 SWAP1 POP JUMP JUMPDEST PUSH1 0x0 DUP1 SLOAD SWAP1 PUSH2 0x100 EXP SWAP1 DIV PUSH20 0xFFFFFFFFFFFFFFFFFFFFFFFFFFFFFFFFFFFFFFFF AND PUSH20 0xFFFFFFFFFFFFFFFFFFFFFFFFFFFFFFFFFFFFFFFF AND CALLER PUSH20 0xFFFFFFFFFFFFFFFFFFFFFFFFFFFFFFFFFFFFFFFF AND EQ PUSH2 0x1168 JUMPI PUSH1 0x40 MLOAD PUSH32 0x8C379A000000000000000000000000000000000000000000000000000000000 DUP2 MSTORE PUSH1 0x4 ADD PUSH2 0x115F SWAP1 PUSH2 0x1DFE JUMP JUMPDEST PUSH1 0x40 MLOAD DUP1 SWAP2 SUB SWAP1 REVERT JUMPDEST JUMP JUMPDEST CALLER PUSH20 0xFFFFFFFFFFFFFFFFFFFFFFFFFFFFFFFFFFFFFFFF AND DUP2 PUSH20 0xFFFFFFFFFFFFFFFFFFFFFFFFFFFFFFFFFFFFFFFF AND SUB PUSH2 0x11D8 JUMPI PUSH1 0x40 MLOAD PUSH32 0x8C379A000000000000000000000000000000000000000000000000000000000 DUP2 MSTORE PUSH1 0x4 ADD PUSH2 0x11CF SWAP1 PUSH2 0x1E6A JUMP JUMPDEST PUSH1 0x40 MLOAD DUP1 SWAP2 SUB SWAP1 REVERT JUMPDEST DUP1 PUSH1 0x1 PUSH1 0x0 PUSH2 0x100 EXP DUP2 SLOAD DUP2 PUSH20 0xFFFFFFFFFFFFFFFFFFFFFFFFFFFFFFFFFFFFFFFF MUL NOT AND SWAP1 DUP4 PUSH20 0xFFFFFFFFFFFFFFFFFFFFFFFFFFFFFFFFFFFFFFFF AND MUL OR SWAP1 SSTORE POP DUP1 PUSH20 0xFFFFFFFFFFFFFFFFFFFFFFFFFFFFFFFFFFFFFFFF AND PUSH1 0x0 DUP1 SLOAD SWAP1 PUSH2 0x100 EXP SWAP1 DIV PUSH20 0xFFFFFFFFFFFFFFFFFFFFFFFFFFFFFFFFFFFFFFFF AND PUSH20 0xFFFFFFFFFFFFFFFFFFFFFFFFFFFFFFFFFFFFFFFF AND PUSH32 0xED8889F560326EB138920D842192F0EB3DD22B4F139C87A2C57538E05BAE1278 PUSH1 0x40 MLOAD PUSH1 0x40 MLOAD DUP1 SWAP2 SUB SWAP1 LOG3 POP JUMP JUMPDEST DUP3 DUP1 SLOAD DUP3 DUP3 SSTORE SWAP1 PUSH1 0x0 MSTORE PUSH1 0x20 PUSH1 0x0 KECCAK256 SWAP1 DUP2 ADD SWAP3 DUP3 ISZERO PUSH2 0x130F JUMPI SWAP2 PUSH1 0x20 MUL DUP3 ADD JUMPDEST DUP3 DUP2 GT ISZERO PUSH2 0x130E JUMPI DUP3 MLOAD DUP3 PUSH1 0x0 PUSH2 0x100 EXP DUP2 SLOAD DUP2 PUSH20 0xFFFFFFFFFFFFFFFFFFFFFFFFFFFFFFFFFFFFFFFF MUL NOT AND SWAP1 DUP4 PUSH20 0xFFFFFFFFFFFFFFFFFFFFFFFFFFFFFFFFFFFFFFFF AND MUL OR SWAP1 SSTORE POP SWAP2 PUSH1 0x20 ADD SWAP2 SWAP1 PUSH1 0x1 ADD SWAP1 PUSH2 0x12B6 JUMP JUMPDEST JUMPDEST POP SWAP1 POP PUSH2 0x131C SWAP2 SWAP1 PUSH2 0x1320 JUMP JUMPDEST POP SWAP1 JUMP JUMPDEST JUMPDEST DUP1 DUP3 GT ISZERO PUSH2 0x1339 JUMPI PUSH1 0x0 DUP2 PUSH1 0x0 SWAP1 SSTORE POP PUSH1 0x1 ADD PUSH2 0x1321 JUMP JUMPDEST POP SWAP1 JUMP JUMPDEST PUSH1 0x0 DUP2 SWAP1 POP SWAP2 SWAP1 POP JUMP JUMPDEST PUSH2 0x1350 DUP2 PUSH2 0x133D JUMP JUMPDEST DUP3 MSTORE POP POP JUMP JUMPDEST PUSH1 0x0 PUSH1 0x20 DUP3 ADD SWAP1 POP PUSH2 0x136B PUSH1 0x0 DUP4 ADD DUP5 PUSH2 0x1347 JUMP JUMPDEST SWAP3 SWAP2 POP POP JUMP JUMPDEST PUSH1 0x0 PUSH1 0x40 MLOAD SWAP1 POP SWAP1 JUMP JUMPDEST PUSH1 0x0 DUP1 REVERT JUMPDEST PUSH1 0x0 DUP1 REVERT JUMPDEST PUSH2 0x138E DUP2 PUSH2 0x133D JUMP JUMPDEST DUP2 EQ PUSH2 0x1399 JUMPI PUSH1 0x0 DUP1 REVERT JUMPDEST POP JUMP JUMPDEST PUSH1 0x0 DUP2 CALLDATALOAD SWAP1 POP PUSH2 0x13AB DUP2 PUSH2 0x1385 JUMP JUMPDEST SWAP3 SWAP2 POP POP JUMP JUMPDEST PUSH1 0x0 DUP1 REVERT JUMPDEST PUSH1 0x0 DUP1 REVERT JUMPDEST PUSH1 0x0 DUP1 REVERT JUMPDEST PUSH1 0x0 DUP1 DUP4 PUSH1 0x1F DUP5 ADD SLT PUSH2 0x13D6 JUMPI PUSH2 0x13D5 PUSH2 0x13B1 JUMP JUMPDEST JUMPDEST DUP3 CALLDATALOAD SWAP1 POP PUSH8 0xFFFFFFFFFFFFFFFF DUP2 GT ISZERO PUSH2 0x13F3 JUMPI PUSH2 0x13F2 PUSH2 0x13B6 JUMP JUMPDEST JUMPDEST PUSH1 0x20 DUP4 ADD SWAP2 POP DUP4 PUSH1 0x20 DUP3 MUL DUP4 ADD GT ISZERO PUSH2 0x140F JUMPI PUSH2 0x140E PUSH2 0x13BB JUMP JUMPDEST JUMPDEST SWAP3 POP SWAP3 SWAP1 POP JUMP JUMPDEST PUSH1 0x0 DUP1 PUSH1 0x0 PUSH1 0x40 DUP5 DUP7 SUB SLT ISZERO PUSH2 0x142F JUMPI PUSH2 0x142E PUSH2 0x137B JUMP JUMPDEST JUMPDEST PUSH1 0x0 PUSH2 0x143D DUP7 DUP3 DUP8 ADD PUSH2 0x139C JUMP JUMPDEST SWAP4 POP POP PUSH1 0x20 DUP5 ADD CALLDATALOAD PUSH8 0xFFFFFFFFFFFFFFFF DUP2 GT ISZERO PUSH2 0x145E JUMPI PUSH2 0x145D PUSH2 0x1380 JUMP JUMPDEST JUMPDEST PUSH2 0x146A DUP7 DUP3 DUP8 ADD PUSH2 0x13C0 JUMP JUMPDEST SWAP3 POP SWAP3 POP POP SWAP3 POP SWAP3 POP SWAP3 JUMP JUMPDEST PUSH1 0x0 DUP1 DUP4 PUSH1 0x1F DUP5 ADD SLT PUSH2 0x148C JUMPI PUSH2 0x148B PUSH2 0x13B1 JUMP JUMPDEST JUMPDEST DUP3 CALLDATALOAD SWAP1 POP PUSH8 0xFFFFFFFFFFFFFFFF DUP2 GT ISZERO PUSH2 0x14A9 JUMPI PUSH2 0x14A8 PUSH2 0x13B6 JUMP JUMPDEST JUMPDEST PUSH1 0x20 DUP4 ADD SWAP2 POP DUP4 PUSH1 0x1 DUP3 MUL DUP4 ADD GT ISZERO PUSH2 0x14C5 JUMPI PUSH2 0x14C4 PUSH2 0x13BB JUMP JUMPDEST JUMPDEST SWAP3 POP SWAP3 SWAP1 POP JUMP JUMPDEST PUSH1 0x0 DUP1 PUSH1 0x20 DUP4 DUP6 SUB SLT ISZERO PUSH2 0x14E3 JUMPI PUSH2 0x14E2 PUSH2 0x137B JUMP JUMPDEST JUMPDEST PUSH1 0x0 DUP4 ADD CALLDATALOAD PUSH8 0xFFFFFFFFFFFFFFFF DUP2 GT ISZERO PUSH2 0x1501 JUMPI PUSH2 0x1500 PUSH2 0x1380 JUMP JUMPDEST JUMPDEST PUSH2 0x150D DUP6 DUP3 DUP7 ADD PUSH2 0x1476 JUMP JUMPDEST SWAP3 POP SWAP3 POP POP SWAP3 POP SWAP3 SWAP1 POP JUMP JUMPDEST PUSH1 0x0 PUSH20 0xFFFFFFFFFFFFFFFFFFFFFFFFFFFFFFFFFFFFFFFF DUP3 AND SWAP1 POP SWAP2 SWAP1 POP JUMP JUMPDEST PUSH1 0x0 PUSH2 0x1544 DUP3 PUSH2 0x1519 JUMP JUMPDEST SWAP1 POP SWAP2 SWAP1 POP JUMP JUMPDEST PUSH2 0x1554 DUP2 PUSH2 0x1539 JUMP JUMPDEST DUP3 MSTORE POP POP JUMP JUMPDEST PUSH1 0x0 PUSH1 0x20 DUP3 ADD SWAP1 POP PUSH2 0x156F PUSH1 0x0 DUP4 ADD DUP5 PUSH2 0x154B JUMP JUMPDEST SWAP3 SWAP2 POP POP JUMP JUMPDEST PUSH1 0x0 PUSH4 0xFFFFFFFF DUP3 AND SWAP1 POP SWAP2 SWAP1 POP JUMP JUMPDEST PUSH2 0x158E DUP2 PUSH2 0x1575 JUMP JUMPDEST DUP3 MSTORE POP POP JUMP JUMPDEST PUSH1 0x0 PUSH1 0x20 DUP3 ADD SWAP1 POP PUSH2 0x15A9 PUSH1 0x0 DUP4 ADD DUP5 PUSH2 0x1585 JUMP JUMPDEST SWAP3 SWAP2 POP POP JUMP JUMPDEST PUSH32 0x4E487B7100000000000000000000000000000000000000000000000000000000 PUSH1 0x0 MSTORE PUSH1 0x21 PUSH1 0x4 MSTORE PUSH1 0x24 PUSH1 0x0 REVERT JUMPDEST PUSH1 0x2 DUP2 LT PUSH2 0x15EF JUMPI PUSH2 0x15EE PUSH2 0x15AF JUMP JUMPDEST JUMPDEST POP JUMP JUMPDEST PUSH1 0x0 DUP2 SWAP1 POP PUSH2 0x1600 DUP3 PUSH2 0x15DE JUMP JUMPDEST SWAP2 SWAP1 POP JUMP JUMPDEST PUSH1 0x0 PUSH2 0x1610 DUP3 PUSH2 0x15F2 JUMP JUMPDEST SWAP1 POP SWAP2 SWAP1 POP JUMP JUMPDEST PUSH2 0x1620 DUP2 PUSH2 0x1605 JUMP JUMPDEST DUP3 MSTORE POP POP JUMP JUMPDEST PUSH1 0x0 PUSH1 0x20 DUP3 ADD SWAP1 POP PUSH2 0x163B PUSH1 0x0 DUP4 ADD DUP5 PUSH2 0x1617 JUMP JUMPDEST SWAP3 SWAP2 POP POP JUMP JUMPDEST PUSH1 0x0 DUP1 REVERT JUMPDEST PUSH1 0x0 PUSH1 0x1F NOT PUSH1 0x1F DUP4 ADD AND SWAP1 POP SWAP2 SWAP1 POP JUMP JUMPDEST PUSH32 0x4E487B7100000000000000000000000000000000000000000000000000000000 PUSH1 0x0 MSTORE PUSH1 0x41 PUSH1 0x4 MSTORE PUSH1 0x24 PUSH1 0x0 REVERT JUMPDEST PUSH2 0x168F DUP3 PUSH2 0x1646 JUMP JUMPDEST DUP2 ADD DUP2 DUP2 LT PUSH8 0xFFFFFFFFFFFFFFFF DUP3 GT OR ISZERO PUSH2 0x16AE JUMPI PUSH2 0x16AD PUSH2 0x1657 JUMP JUMPDEST JUMPDEST DUP1 PUSH1 0x40 MSTORE POP POP POP JUMP JUMPDEST PUSH1 0x0 PUSH2 0x16C1 PUSH2 0x1371 JUMP JUMPDEST SWAP1 POP PUSH2 0x16CD DUP3 DUP3 PUSH2 0x1686 JUMP JUMPDEST SWAP2 SWAP1 POP JUMP JUMPDEST PUSH1 0x0 PUSH8 0xFFFFFFFFFFFFFFFF DUP3 GT ISZERO PUSH2 0x16ED JUMPI PUSH2 0x16EC PUSH2 0x1657 JUMP JUMPDEST JUMPDEST PUSH2 0x16F6 DUP3 PUSH2 0x1646 JUMP JUMPDEST SWAP1 POP PUSH1 0x20 DUP2 ADD SWAP1 POP SWAP2 SWAP1 POP JUMP JUMPDEST DUP3 DUP2 DUP4 CALLDATACOPY PUSH1 0x0 DUP4 DUP4 ADD MSTORE POP POP POP JUMP JUMPDEST PUSH1 0x0 PUSH2 0x1725 PUSH2 0x1720 DUP5 PUSH2 0x16D2 JUMP JUMPDEST PUSH2 0x16B7 JUMP JUMPDEST SWAP1 POP DUP3 DUP2 MSTORE PUSH1 0x20 DUP2 ADD DUP5 DUP5 DUP5 ADD GT ISZERO PUSH2 0x1741 JUMPI PUSH2 0x1740 PUSH2 0x1641 JUMP JUMPDEST JUMPDEST PUSH2 0x174C DUP5 DUP3 DUP6 PUSH2 0x1703 JUMP JUMPDEST POP SWAP4 SWAP3 POP POP POP JUMP JUMPDEST PUSH1 0x0 DUP3 PUSH1 0x1F DUP4 ADD SLT PUSH2 0x1769 JUMPI PUSH2 0x1768 PUSH2 0x13B1 JUMP JUMPDEST JUMPDEST DUP2 CALLDATALOAD PUSH2 0x1779 DUP5 DUP3 PUSH1 0x20 DUP7 ADD PUSH2 0x1712 JUMP JUMPDEST SWAP2 POP POP SWAP3 SWAP2 POP POP JUMP JUMPDEST PUSH1 0x0 PUSH1 0x20 DUP3 DUP5 SUB SLT ISZERO PUSH2 0x1798 JUMPI PUSH2 0x1797 PUSH2 0x137B JUMP JUMPDEST JUMPDEST PUSH1 0x0 DUP3 ADD CALLDATALOAD PUSH8 0xFFFFFFFFFFFFFFFF DUP2 GT ISZERO PUSH2 0x17B6 JUMPI PUSH2 0x17B5 PUSH2 0x1380 JUMP JUMPDEST JUMPDEST PUSH2 0x17C2 DUP5 DUP3 DUP6 ADD PUSH2 0x1754 JUMP JUMPDEST SWAP2 POP POP SWAP3 SWAP2 POP POP JUMP JUMPDEST PUSH1 0x0 DUP2 ISZERO ISZERO SWAP1 POP SWAP2 SWAP1 POP JUMP JUMPDEST PUSH2 0x17E0 DUP2 PUSH2 0x17CB JUMP JUMPDEST DUP3 MSTORE POP POP JUMP JUMPDEST PUSH1 0x0 DUP2 MLOAD SWAP1 POP SWAP2 SWAP1 POP JUMP JUMPDEST PUSH1 0x0 DUP3 DUP3 MSTORE PUSH1 0x20 DUP3 ADD SWAP1 POP SWAP3 SWAP2 POP POP JUMP JUMPDEST PUSH1 0x0 JUMPDEST DUP4 DUP2 LT ISZERO PUSH2 0x1820 JUMPI DUP1 DUP3 ADD MLOAD DUP2 DUP5 ADD MSTORE PUSH1 0x20 DUP2 ADD SWAP1 POP PUSH2 0x1805 JUMP JUMPDEST PUSH1 0x0 DUP5 DUP5 ADD MSTORE POP POP POP POP JUMP JUMPDEST PUSH1 0x0 PUSH2 0x1837 DUP3 PUSH2 0x17E6 JUMP JUMPDEST PUSH2 0x1841 DUP2 DUP6 PUSH2 0x17F1 JUMP JUMPDEST SWAP4 POP PUSH2 0x1851 DUP2 DUP6 PUSH1 0x20 DUP7 ADD PUSH2 0x1802 JUMP JUMPDEST PUSH2 0x185A DUP2 PUSH2 0x1646 JUMP JUMPDEST DUP5 ADD SWAP2 POP POP SWAP3 SWAP2 POP POP JUMP JUMPDEST PUSH1 0x0 PUSH1 0x40 DUP3 ADD SWAP1 POP PUSH2 0x187A PUSH1 0x0 DUP4 ADD DUP6 PUSH2 0x17D7 JUMP JUMPDEST DUP2 DUP2 SUB PUSH1 0x20 DUP4 ADD MSTORE PUSH2 0x188C DUP2 DUP5 PUSH2 0x182C JUMP JUMPDEST SWAP1 POP SWAP4 SWAP3 POP POP POP JUMP JUMPDEST PUSH2 0x189E DUP2 PUSH2 0x1539 JUMP JUMPDEST DUP2 EQ PUSH2 0x18A9 JUMPI PUSH1 0x0 DUP1 REVERT JUMPDEST POP JUMP JUMPDEST PUSH1 0x0 DUP2 CALLDATALOAD SWAP1 POP PUSH2 0x18BB DUP2 PUSH2 0x1895 JUMP JUMPDEST SWAP3 SWAP2 POP POP JUMP JUMPDEST PUSH1 0x0 PUSH1 0x20 DUP3 DUP5 SUB SLT ISZERO PUSH2 0x18D7 JUMPI PUSH2 0x18D6 PUSH2 0x137B JUMP JUMPDEST JUMPDEST PUSH1 0x0 PUSH2 0x18E5 DUP5 DUP3 DUP6 ADD PUSH2 0x18AC JUMP JUMPDEST SWAP2 POP POP SWAP3 SWAP2 POP POP JUMP JUMPDEST PUSH1 0x0 DUP2 SWAP1 POP SWAP2 SWAP1 POP JUMP JUMPDEST PUSH1 0x0 PUSH2 0x1913 PUSH2 0x190E PUSH2 0x1909 DUP5 PUSH2 0x1519 JUMP JUMPDEST PUSH2 0x18EE JUMP JUMPDEST PUSH2 0x1519 JUMP JUMPDEST SWAP1 POP SWAP2 SWAP1 POP JUMP JUMPDEST PUSH1 0x0 PUSH2 0x1925 DUP3 PUSH2 0x18F8 JUMP JUMPDEST SWAP1 POP SWAP2 SWAP1 POP JUMP JUMPDEST PUSH1 0x0 PUSH2 0x1937 DUP3 PUSH2 0x191A JUMP JUMPDEST SWAP1 POP SWAP2 SWAP1 POP JUMP JUMPDEST PUSH2 0x1947 DUP2 PUSH2 0x192C JUMP JUMPDEST DUP3 MSTORE POP POP JUMP JUMPDEST PUSH1 0x0 PUSH1 0x20 DUP3 ADD SWAP1 POP PUSH2 0x1962 PUSH1 0x0 DUP4 ADD DUP5 PUSH2 0x193E JUMP JUMPDEST SWAP3 SWAP2 POP POP JUMP JUMPDEST PUSH1 0x0 PUSH1 0x20 DUP3 DUP5 SUB SLT ISZERO PUSH2 0x197E JUMPI PUSH2 0x197D PUSH2 0x137B JUMP JUMPDEST JUMPDEST PUSH1 0x0 PUSH2 0x198C DUP5 DUP3 DUP6 ADD PUSH2 0x139C JUMP JUMPDEST SWAP2 POP POP SWAP3 SWAP2 POP POP JUMP JUMPDEST PUSH1 0x0 PUSH1 0x40 DUP3 ADD SWAP1 POP PUSH2 0x19AA PUSH1 0x0 DUP4 ADD DUP6 PUSH2 0x154B JUMP JUMPDEST PUSH2 0x19B7 PUSH1 0x20 DUP4 ADD DUP5 PUSH2 0x154B JUMP JUMPDEST SWAP4 SWAP3 POP POP POP JUMP JUMPDEST PUSH1 0x0 PUSH1 0x60 DUP3 ADD SWAP1 POP PUSH2 0x19D3 PUSH1 0x0 DUP4 ADD DUP7 PUSH2 0x1347 JUMP JUMPDEST PUSH2 0x19E0 PUSH1 0x20 DUP4 ADD DUP6 PUSH2 0x1347 JUMP JUMPDEST PUSH2 0x19ED PUSH1 0x40 DUP4 ADD DUP5 PUSH2 0x1347 JUMP JUMPDEST SWAP5 SWAP4 POP POP POP POP JUMP JUMPDEST PUSH1 0x0 DUP2 SWAP1 POP SWAP2 SWAP1 POP JUMP JUMPDEST PUSH2 0x1A08 DUP2 PUSH2 0x19F5 JUMP JUMPDEST DUP3 MSTORE POP POP JUMP JUMPDEST PUSH2 0x1A17 DUP2 PUSH2 0x133D JUMP JUMPDEST DUP3 MSTORE POP POP JUMP JUMPDEST PUSH1 0x0 PUSH2 0xFFFF DUP3 AND SWAP1 POP SWAP2 SWAP1 POP JUMP JUMPDEST PUSH2 0x1A34 DUP2 PUSH2 0x1A1D JUMP JUMPDEST DUP3 MSTORE POP POP JUMP JUMPDEST PUSH2 0x1A43 DUP2 PUSH2 0x1575 JUMP JUMPDEST DUP3 MSTORE POP POP JUMP JUMPDEST PUSH1 0x0 DUP3 DUP3 MSTORE PUSH1 0x20 DUP3 ADD SWAP1 POP SWAP3 SWAP2 POP POP JUMP JUMPDEST PUSH1 0x0 PUSH2 0x1A65 DUP3 PUSH2 0x17E6 JUMP JUMPDEST PUSH2 0x1A6F DUP2 DUP6 PUSH2 0x1A49 JUMP JUMPDEST SWAP4 POP PUSH2 0x1A7F DUP2 DUP6 PUSH1 0x20 DUP7 ADD PUSH2 0x1802 JUMP JUMPDEST PUSH2 0x1A88 DUP2 PUSH2 0x1646 JUMP JUMPDEST DUP5 ADD SWAP2 POP POP SWAP3 SWAP2 POP POP JUMP JUMPDEST PUSH1 0x0 PUSH1 0xC0 DUP4 ADD PUSH1 0x0 DUP4 ADD MLOAD PUSH2 0x1AAB PUSH1 0x0 DUP7 ADD DUP3 PUSH2 0x19FF JUMP JUMPDEST POP PUSH1 0x20 DUP4 ADD MLOAD PUSH2 0x1ABE PUSH1 0x20 DUP7 ADD DUP3 PUSH2 0x1A0E JUMP JUMPDEST POP PUSH1 0x40 DUP4 ADD MLOAD PUSH2 0x1AD1 PUSH1 0x40 DUP7 ADD DUP3 PUSH2 0x1A2B JUMP JUMPDEST POP PUSH1 0x60 DUP4 ADD MLOAD PUSH2 0x1AE4 PUSH1 0x60 DUP7 ADD DUP3 PUSH2 0x1A3A JUMP JUMPDEST POP PUSH1 0x80 DUP4 ADD MLOAD PUSH2 0x1AF7 PUSH1 0x80 DUP7 ADD DUP3 PUSH2 0x1A3A JUMP JUMPDEST POP PUSH1 0xA0 DUP4 ADD MLOAD DUP5 DUP3 SUB PUSH1 0xA0 DUP7 ADD MSTORE PUSH2 0x1B0F DUP3 DUP3 PUSH2 0x1A5A JUMP JUMPDEST SWAP2 POP POP DUP1 SWAP2 POP POP SWAP3 SWAP2 POP POP JUMP JUMPDEST PUSH1 0x0 PUSH1 0x20 DUP3 ADD SWAP1 POP DUP2 DUP2 SUB PUSH1 0x0 DUP4 ADD MSTORE PUSH2 0x1B36 DUP2 DUP5 PUSH2 0x1A93 JUMP JUMPDEST SWAP1 POP SWAP3 SWAP2 POP POP JUMP JUMPDEST PUSH1 0x0 DUP2 MLOAD SWAP1 POP PUSH2 0x1B4D DUP2 PUSH2 0x1385 JUMP JUMPDEST SWAP3 SWAP2 POP POP JUMP JUMPDEST PUSH1 0x0 PUSH1 0x20 DUP3 DUP5 SUB SLT ISZERO PUSH2 0x1B69 JUMPI PUSH2 0x1B68 PUSH2 0x137B JUMP JUMPDEST JUMPDEST PUSH1 0x0 PUSH2 0x1B77 DUP5 DUP3 DUP6 ADD PUSH2 0x1B3E JUMP JUMPDEST SWAP2 POP POP SWAP3 SWAP2 POP POP JUMP JUMPDEST PUSH32 0x4E487B7100000000000000000000000000000000000000000000000000000000 PUSH1 0x0 MSTORE PUSH1 0x11 PUSH1 0x4 MSTORE PUSH1 0x24 PUSH1 0x0 REVERT JUMPDEST PUSH1 0x0 PUSH2 0x1BBA DUP3 PUSH2 0x133D JUMP JUMPDEST SWAP2 POP PUSH2 0x1BC5 DUP4 PUSH2 0x133D JUMP JUMPDEST SWAP3 POP DUP3 DUP3 SUB SWAP1 POP DUP2 DUP2 GT ISZERO PUSH2 0x1BDD JUMPI PUSH2 0x1BDC PUSH2 0x1B80 JUMP JUMPDEST JUMPDEST SWAP3 SWAP2 POP POP JUMP JUMPDEST PUSH1 0x0 DUP3 DUP3 MSTORE PUSH1 0x20 DUP3 ADD SWAP1 POP SWAP3 SWAP2 POP POP JUMP JUMPDEST PUSH32 0x4D7573742062652070726F706F736564206F776E657200000000000000000000 PUSH1 0x0 DUP3 ADD MSTORE POP JUMP JUMPDEST PUSH1 0x0 PUSH2 0x1C2A PUSH1 0x16 DUP4 PUSH2 0x1BE3 JUMP JUMPDEST SWAP2 POP PUSH2 0x1C35 DUP3 PUSH2 0x1BF4 JUMP JUMPDEST PUSH1 0x20 DUP3 ADD SWAP1 POP SWAP2 SWAP1 POP JUMP JUMPDEST PUSH1 0x0 PUSH1 0x20 DUP3 ADD SWAP1 POP DUP2 DUP2 SUB PUSH1 0x0 DUP4 ADD MSTORE PUSH2 0x1C59 DUP2 PUSH2 0x1C1D JUMP JUMPDEST SWAP1 POP SWAP2 SWAP1 POP JUMP JUMPDEST PUSH1 0x0 PUSH1 0x60 DUP3 ADD SWAP1 POP PUSH2 0x1C75 PUSH1 0x0 DUP4 ADD DUP7 PUSH2 0x154B JUMP JUMPDEST PUSH2 0x1C82 PUSH1 0x20 DUP4 ADD DUP6 PUSH2 0x154B JUMP JUMPDEST PUSH2 0x1C8F PUSH1 0x40 DUP4 ADD DUP5 PUSH2 0x154B JUMP JUMPDEST SWAP5 SWAP4 POP POP POP POP JUMP JUMPDEST PUSH32 0x4E487B7100000000000000000000000000000000000000000000000000000000 PUSH1 0x0 MSTORE PUSH1 0x32 PUSH1 0x4 MSTORE PUSH1 0x24 PUSH1 0x0 REVERT JUMPDEST PUSH32 0x4E487B7100000000000000000000000000000000000000000000000000000000 PUSH1 0x0 MSTORE PUSH1 0x12 PUSH1 0x4 MSTORE PUSH1 0x24 PUSH1 0x0 REVERT JUMPDEST PUSH1 0x0 PUSH2 0x1D00 DUP3 PUSH2 0x133D JUMP JUMPDEST SWAP2 POP PUSH2 0x1D0B DUP4 PUSH2 0x133D JUMP JUMPDEST SWAP3 POP DUP3 PUSH2 0x1D1B JUMPI PUSH2 0x1D1A PUSH2 0x1CC6 JUMP JUMPDEST JUMPDEST DUP3 DUP3 MOD SWAP1 POP SWAP3 SWAP2 POP POP JUMP JUMPDEST PUSH1 0x0 DUP2 SWAP1 POP SWAP3 SWAP2 POP POP JUMP JUMPDEST POP JUMP JUMPDEST PUSH1 0x0 PUSH2 0x1D41 PUSH1 0x0 DUP4 PUSH2 0x1D26 JUMP JUMPDEST SWAP2 POP PUSH2 0x1D4C DUP3 PUSH2 0x1D31 JUMP JUMPDEST PUSH1 0x0 DUP3 ADD SWAP1 POP SWAP2 SWAP1 POP JUMP JUMPDEST PUSH1 0x0 PUSH2 0x1D62 DUP3 PUSH2 0x1D34 JUMP JUMPDEST SWAP2 POP DUP2 SWAP1 POP SWAP2 SWAP1 POP JUMP JUMPDEST PUSH2 0x1D75 DUP2 PUSH2 0x17CB JUMP JUMPDEST DUP3 MSTORE POP POP JUMP JUMPDEST PUSH1 0x20 DUP3 ADD PUSH1 0x0 DUP3 ADD MLOAD PUSH2 0x1D91 PUSH1 0x0 DUP6 ADD DUP3 PUSH2 0x1D6C JUMP JUMPDEST POP POP POP POP JUMP JUMPDEST PUSH1 0x0 PUSH1 0x20 DUP3 ADD SWAP1 POP PUSH2 0x1DAC PUSH1 0x0 DUP4 ADD DUP5 PUSH2 0x1D7B JUMP JUMPDEST SWAP3 SWAP2 POP POP JUMP JUMPDEST PUSH32 0x4F6E6C792063616C6C61626C65206279206F776E657200000000000000000000 PUSH1 0x0 DUP3 ADD MSTORE POP JUMP JUMPDEST PUSH1 0x0 PUSH2 0x1DE8 PUSH1 0x16 DUP4 PUSH2 0x1BE3 JUMP JUMPDEST SWAP2 POP PUSH2 0x1DF3 DUP3 PUSH2 0x1DB2 JUMP JUMPDEST PUSH1 0x20 DUP3 ADD SWAP1 POP SWAP2 SWAP1 POP JUMP JUMPDEST PUSH1 0x0 PUSH1 0x20 DUP3 ADD SWAP1 POP DUP2 DUP2 SUB PUSH1 0x0 DUP4 ADD MSTORE PUSH2 0x1E17 DUP2 PUSH2 0x1DDB JUMP JUMPDEST SWAP1 POP SWAP2 SWAP1 POP JUMP JUMPDEST PUSH32 0x43616E6E6F74207472616E7366657220746F2073656C66000000000000000000 PUSH1 0x0 DUP3 ADD MSTORE POP JUMP JUMPDEST PUSH1 0x0 PUSH2 0x1E54 PUSH1 0x17 DUP4 PUSH2 0x1BE3 JUMP JUMPDEST SWAP2 POP PUSH2 0x1E5F DUP3 PUSH2 0x1E1E JUMP JUMPDEST PUSH1 0x20 DUP3 ADD SWAP1 POP SWAP2 SWAP1 POP JUMP JUMPDEST PUSH1 0x0 PUSH1 0x20 DUP3 ADD SWAP1 POP DUP2 DUP2 SUB PUSH1 0x0 DUP4 ADD MSTORE PUSH2 0x1E83 DUP2 PUSH2 0x1E47 JUMP JUMPDEST SWAP1 POP SWAP2 SWAP1 POP JUMP INVALID LOG2 PUSH5 0x6970667358 0x22 SLT KECCAK256 0xE5 PUSH19 0x642B7A6A4FF856A5DE052D220A163C438AB4C6 MCOPY CALLCODE TLOAD JUMP 0xE SWAP5 0x4C 0x28 CALLVALUE EXP SWAP9 PUSH5 0x736F6C6343 STOP ADDMOD XOR STOP CALLER "
        },
        "methodIdentifiers": {
          "acceptOwnership()": "79ba5097",
          "checkUpkeep(bytes)": "6e04ff0d",
          "getEntranceFee()": "09bc33a7",
          "getInterval()": "91ad27b4",
          "getLatestTimestamp()": "f43b52cb",
          "getLotteryState()": "6b68c03c",
          "getNumWords()": "53a2c19a",
          "getNumberOfPlayers()": "fd6673f5",
          "getPlayer(uint256)": "e55ae4e8",
          "getRecentTimestamp()": "d3df9658",
          "getRecentWinner()": "473f1ddc",
          "joinLottery()": "6c77f989",
          "owner()": "8da5cb5b",
          "performUpkeep(bytes)": "4585e33b",
          "rawFulfillRandomWords(uint256,uint256[])": "1fe543e3",
          "s_vrfCoordinator()": "9eccacf6",
          "setCoordinator(address)": "8ea98117",
          "transferOwnership(address)": "f2fde38b"
        }
      }
    }
  }
}